:020000040800F2
:100000000008002065920008DD450008DF45000873
:10001000E1450008E3450008E54500080000000050
:10002000000000000000000000000000E74500089C
:10003000E945000800000000EB450008ED45000818
:100040003B93000877480008439300085148000894
:100050004B9300084F9300085393000857930008F0
:100060005B930008EF45000863930008B14800085F
:100070006B9300086F930008739300087793000850
:100080007B9300087F930008839300088793000800
:100090008B9300088F93000893930008F1450008A4
:1000A0009B93000811460008A3930008A79300083B
:1000B000AB930008F1460008B3930008B79300081B
:1000C000BB930008BF930008C3930008C7930008C0
:1000D000CB930008F3460008A14700084B480008EE
:1000E000DB930008DF930008E3930008E793000820
:1000F000EB930008EF930008F3930008F7930008D0
:10010000FB930008FF93000803940008079400087D
:100110004D4800084F480008139400081794000841
:100120001B9400081F9400082394000827940008DB
:1001300010B582B00F208DF8000005F0E7F900241B
:1001400006E001222100C9B200A805F0E0FA641C13
:10015000E4B2382CF5D301210820DFF8D02C526806
:1001600090470A21DFF8C80C05F0F4FADFF8540DC7
:10017000002403E0FF210170401C641CE4B2172C32
:10018000F8D313BD0021B0F13002D2B20A2A06D250
:10019000C0B2DFF8B81D401810F8301C26E0B0F1EE
:1001A0004102D2B21A2A06D2C0B2DFF8A01D40180E
:1001B00010F8371C1AE0B0F16102D2B21A2A06D246
:1001C000C0B2DFF8881D401810F8571C0EE0C0B20E
:1001D000202804D1DFF8740D90F8251006E0C0B295
:1001E0002D2803D1DFF8640D90F824100800C0B268
:1001F000704738B50300140000200025DBB20A2B3D
:1002000004D2DBB2DFF8440D185C03E00800C0B292
:10021000FFF7B8FFE4B2002C0BD0022C43D025D35B
:10022000042C77D05BD3062C00F0AF80C0F0908018
:10023000CAE010F0010110F00202920152EAC1017D
:1002400010F0040251EAC201C0F3C002114310F0E1
:100250001002D2B251EAD20110F02002D2B251EA19
:10026000D20110F0400050EA0105ADE010F00101AC
:1002700010F0020251EAC20110F0040251EA021128
:1002800010F00802114310F01002D2B251EA9201AC
:1002900010F02002D2B251EA121110F04000C0B2A8
:1002A00051EA500590E010F0010110F0020251EA0D
:1002B000021110F0040251EA421110F00802114339
:1002C00010F01002D2B251EA920110F02002D2B224
:1002D00051EA121110F0400050EA010574E010F0EC
:1002E000010110F0020252EA011110F0040251EA79
:1002F000420110F0080251EA021110F0100251EA16
:10030000820110F02002114310F04000C0B251EA07
:10031000101559E010F0010110F00202520152EAEA
:10032000C10110F0040251EA8201C0F3C00211437E
:1003300010F01002D2B251EAD20110F02002D2B273
:1003400051EAD20110F04000C0B251EA50053BE042
:10035000C0F3000110F00202520152EAC11110F084
:10036000040251EAC20110F0080251EA4201C0F34E
:100370000012114310F02002D2B251EAD20110F063
:100380004000C0B251EA50151EE0C0F3000110F069
:100390000202520152EAC11110F0040251EAC201F4
:1003A00010F0080251EA420110F01002D2B251EAF4
:1003B000D20110F02002D2B251EA920110F04000B6
:1003C000C0B251EA1015FFE72800C0B232BD2DE9D6
:1003D000F04182B004000D000122E4B2DFF8180CF5
:1003E00010F8241000A805F072F90122E4B2DFF839
:1003F000080C10EB840041780DF1010005F067F95D
:100400009DF800009DF8011050EA01108DF80000E1
:100410000020E4B2DFF8E01B11EB8401C978FF296A
:1004200008D00120E4B2DFF8D01B11EB840191F970
:10043000031088409DF8001031EA00069DF8001076
:1004400010EA0107DFF8B40B0068E04010F0010883
:100450005FFA88F8B8F1010F28D1DFF8A00BC07A55
:10046000DFF8981B897A884220D0DFF8900B807AD9
:1004700000281BD117F00F008DF80000FFB23809DB
:100480008DF801000122E4B2DFF86C0B10F82410A3
:1004900000A805F03CF90122E4B2DFF85C0B10EB98
:1004A000840041780DF1010005F031F95FFA88F818
:1004B000B8F1000F04D0DFF8440B807A002820D078
:1004C000F6B2EDB2AE421CD02F4317F00F008DF8FC
:1004D0000000FFB238098DF801000122E4B2DFF814
:1004E000180B10F8241000A805F011F90122E4B24D
:1004F000DFF8040B10EB840041780DF1010005F0EA
:1005000006F9BDE8F38138B504000D0015F00105CA
:100510000122E4B2DFF8E80A10F8141000A805F090
:10052000D6F89DF80000E4B2DFF8D41A11EB4401CC
:1005300091F90110084110F00100DFF8C01A496874
:10054000E14011F00101C9B2012933D1DFF8AC0A51
:10055000C07ADFF8A81A897A884255D0DFF89C0A59
:10056000807A00280ED09DF800000121E4B2DFF867
:10057000902A12EB440292F90120914008438DF831
:1005800000000DE09DF800000121E4B2DFF8702AC0
:1005900012EB440292F90120914088438DF800004B
:1005A0000122E4B2DFF8580A10F8141000A805F090
:1005B000AEF829E0C0B2EDB2A84225D09DF8000007
:1005C0000121E4B2DFF8382A12EB440292F901204B
:1005D000914088438DF800009DF80000EDB2E4B230
:1005E000DFF81C1A11EB440191F9011015FA01F121
:1005F00008438DF800000122E4B2DFF8040A10F885
:10060000141000A805F083F831BDF8B5DFF8EC0947
:1006100090F82400DFF8EC190978884231D0DFF82F
:10062000E409007800280AD100210120DFF8FC2726
:100630005268904700210120FFF765FF1AE0DFF8BC
:10064000C4090078012804D0DFF8B809007803282D
:100650000AD100210120DFF8D427526890470121F8
:100660000120FFF750FF05E001210120DFF8BC2742
:1006700052689047DFF88409DFF88819097880F814
:100680002410DFF87809807BDFF8781991F854108E
:1006900088420DD0DFF86C0990F854100320FFF762
:1006A00032FFDFF85809DFF85C1991F854108173B4
:1006B000DFF8480990F82200DFF84C19C979884220
:1006C0000CD0DFF84409C1790320FFF71CFFDFF8E5
:1006D0002C09DFF83419C97980F82210DFF82809CD
:1006E00090F83800012802D3DFF8204901E0DFF854
:1006F0002049DFF8080990F82300616888420DD18D
:10070000DFF8040990F83800002851D0DFF8EC0831
:10071000C07ADFF8E818897A884249D004F21405D3
:1007200000263DE00027F6B2012E00D101272868FF
:10073000FFB238186423F6B2DFF8BC1811EBC6011B
:100740008A78FF21B0FBF3FC03FB1C000A23B0FBFB
:10075000F3F0C0B2FFF74DFD0100C9B2F6B2700070
:10076000C0B2FFF734FE2868FFB238180A23F6B289
:100770007100DFF8842812EB81018A79FF21B0FB38
:10078000F3F703FB1700C0B2FFF733FD0100C9B256
:10079000F6B27000401CC0B2FFF719FE2D1F761C88
:1007A000F6B2052EBED36068DFF8501881F823003A
:1007B000DFF84808C07ADFF84418897A88421BD0ED
:1007C000DFF838084068C0F34000C0B2002805D008
:1007D000DFF82808817A0120FFF795FEDFF81C0872
:1007E0004068C0F30020C0B2002805D0DFF80C0834
:1007F000817A0820FFF787FEF1BD38B50024DFF8C5
:10080000FC07007B10F00100DFF80818097811F0F0
:10081000010188423ED000210920FFF774FEDFF875
:10082000D80790F82A20FF21FF20FFF7E2FC010003
:10083000C9B20A20FFF7CBFD002415E0E4B2DFF8CF
:10084000B80710EB840090F82E20E4B2DFF8C80758
:10085000215CFF20FFF7CDFC0100C9B214F10B00B1
:10086000C0B2FFF7B4FD641CE4B2022CE6D3DFF89B
:100870008C07818921F001018181DFF8800780895F
:10088000DFF89017097811F001010843DFF86C17C1
:1008900088818BE0DFF87C078588DFF86007408A75
:1008A000ADB2A84200F0828040F2CF70ADB2854276
:1008B00003D340F2CF75012405E04FF47A70ADB256
:1008C000854200D301242100C9B20920FFF71BFE95
:1008D000ADB2642D02D2E4B2002C22D00024E4B2E6
:1008E000032C5DD2ADB20A20E4B26142DFF80827E2
:1008F00012EB810191F83220FF2195FBF0F300FB10
:100900001350C0B2FFF775FC0100C9B2D4F10C005E
:10091000C0B2FFF75CFDADB20A2095FBF0F5641C98
:10092000DDE70024ADB20A20E4B26142DFF8C82658
:1009300012EB810191F82E20FF2195FBF0F300FBD3
:100940001350C0B2FFF755FC0100C9B2D4F10B003F
:10095000C0B2FFF73CFDADB20A2095FBF0F5641C78
:10096000ADB2002DDED1E4B2022C0CD2DFF8880645
:1009700090F82A20FF21FF20FFF73BFC0100C9B2BD
:100980000A20FFF724FDDFF8700690F83220FF21DF
:10099000FF20FFF72EFC0100C9B20C20FFF717FD66
:1009A000DFF85806DFF86C168988418231BD38B50A
:1009B000DFF84806007B10F00600DFF858160978CB
:1009C00011F00601884249D000210C20FFF79BFD61
:1009D00000242AE0E4B2DFF8200610EB840090F84F
:1009E0003620E4B2DFF83006215CFF20FFF701FC7F
:1009F0000100C9B214F10D00C0B2FFF7E8FCE4B287
:100A0000DFF8F40510EB840090F83E20E4B2DFF844
:100A10000806215CFF20FFF7ECFB0100C9B214F1CE
:100A20000F00C0B2FFF7D3FC641CE4B2022CD1D398
:100A3000DFF8C80580894FF6F9710840DFF8BC156A
:100A40008881DFF8B8058089DFF8C815097811F0CA
:100A500006010843DFF8A415888188E0DFF89C05CB
:100A6000B0F91600DFF8AC15B1F90810884243D090
:100A7000DFF8A005B0F90800002804D5DFF89405D8
:100A80000089323803E0DFF88C05B0F9080000B2C5
:100A9000642190FBF1F2212100A803F0F7FA002570
:100AA0009DF800002D2800D101252900C9B20C2095
:100AB000FFF729FD002416E0E4B2DFF83C0510EB57
:100AC000840090F83620E4B2EDB2281900A9415C08
:100AD000FF20FFF78EFB0100C9B214F10D00C0B278
:100AE000FFF775FC641CE4B2022CE5D3DFF80C05BB
:100AF000DFF820150989C182DFF80005008BDFF8D7
:100B000014154989884232D0DFF80805B0F90A0087
:100B100042F2107100B2884201DB42F20F7000B263
:100B2000642190FBF1F2212100A803F0AFFA002428
:100B300014E0E4B2DFF8C00410EB840090F83E202B
:100B4000E4B200A8215CFF20FFF753FB0100C9B20B
:100B500014F10F00C0B2FFF73AFC641CE4B2022C9F
:100B6000E7D3DFF89804DFF8AC144989018331BD7D
:100B700038B5DFF88804C08BDFF89814498A8842BA
:100B800063D0DFF89004807C10F00F05EDB26D00AB
:100B9000002406E0002114F11A00C0B2FFF7B3FCF4
:100BA000641CE4B2062C0AD2E4B2EDB2AC42F1D23B
:100BB000012114F11A00C0B2FFF7A5FCF0E7DFF83D
:100BC0005404408A801110F001052900C9B2202088
:100BD000FFF799FC002406E0002114F12100C0B2C7
:100BE000FFF791FC641CE4B2052CF5D3DFF8240474
:100BF000807C10F03005EDB2002D12D0DFF8140427
:100C0000807CC00603D501212520FFF77CFCDFF89E
:100C10000404807C800612D501212420FFF773FC98
:100C20000DE0DFF8F003807C10F00F05EDB2012D30
:100C300005D3012115F12000C0B2FFF764FCDFF8F5
:100C4000BC03DFF8D013498AC18331BD10B582B02F
:100C50000020DFF8C013C98901291AD3DFF89C13DB
:100C6000898BDFF8B033DB8999422CD0002110202A
:100C7000FFF749FC01211120FFF745FCDFF87C0359
:100C8000DFF89013C9898183DFF88803C2890120C6
:100C900019E0DFF86813098ADFF878335B88994236
:100CA00011D001211020FFF72EFC00211120FFF7A9
:100CB0002AFCDFF84803DFF85C1349880182DFF87B
:100CC000540342880120C0B2002824D04FF47A7027
:100CD00092B2824201D340F2E73292B2302100A8B0
:100CE00003F0D4F9002413E0E4B2C34810EB84000D
:100CF00090F84620E4B200A8215CFF20FFF779FAC3
:100D00000100C9B214F11100C0B2FFF760FB641C0E
:100D1000E4B2032CE8D313BD1CB5BE48808901287A
:100D20003BD3B648408BBB49898988427DD000219E
:100D30001320FFF7E8FB01211420FFF7E4FBAF4885
:100D4000B44989894183B348808942F2107188424D
:100D500002D342F20F7401E0AE488489A4B22200AB
:100D6000402100A803F092F90024E4B2042C5CD2E4
:100D7000E4B2A14810EB840090F85220E4B200A83D
:100D8000215CFF20FFF735FA0100C9B214F114000D
:100D9000C0B2FFF71CFB641CE7E79848808A9D49B6
:100DA000C988884241D001211320FFF7ACFB002104
:100DB0001420FFF7A8FB91489649C988818295487D
:100DC000C0884FF47A71884202D340F2E73401E0E0
:100DD0009048C488884890F85220FF21FF20FFF7F0
:100DE00008FA0100C9B21420FFF7F1FAA4B22200F8
:100DF000302100A803F04AF9002413E0E4B27E4851
:100E000010EB840090F85620E4B200A8215CFF208B
:100E1000FFF7EFF90100C9B214F11500C0B2FFF7F6
:100E2000D6FA641CE4B2032CE8D313BD30080020CA
:100E30000008002010B582B07048008C7549898A7E
:100E400088423DD07348848AE4B2652C12D2E4B261
:100E5000642094FBF0F1C9B21720FFF754FBE4B211
:100E6000642094FBF0F100FB1142212100A803F063
:100E70000DF908E045208DF8000072208DF8010082
:100E800000208DF80200002413E0E4B25A4810EB71
:100E9000840090F86220E4B200A8215CFF20FFF7F4
:100EA000A8F90100C9B214F11800C0B2FFF78FFA17
:100EB000641CE4B2022CE8D350485649898A018464
:100EC00013BD0000DE14002010B54F4880780128C3
:100ED0003BD1002405E0E4B2504850F8240080479C
:100EE000641CE4B2072CF6D344484068002803D1C0
:100EF00042480068002821D04048C07A3F49897A9A
:100F0000884203D03D483D49897AC1723B480089F7
:100F1000332803D239480121817202E03748002189
:100F2000817236480089642802D334480021018147
:100F300032480089401C3149088106E02F48008969
:100F4000002802D02D480021018110BDCC9000085E
:100F500080B51E20ADF800002B48C078002807D1CE
:100F600029480121C170012100A804F0F3FB01E030
:100F7000FFF7DEF801BD012212FA00F01F4A1268E5
:100F800082431E4B1A60C9B2002904D01B4909686C
:100F900008431A4908607047012212FA00F0174A04
:100FA00052688243154B5A60C9B2002904D01349D4
:100FB0004968084311494860704738B50400C9B210
:100FC0000920FFF7A0FA002512E0EDB20A4810EB65
:100FD000850090F82A20EDB2295DFF20FFF709F97E
:100FE0000100C9B215F10A00C0B2FFF7F0F96D1C9B
:100FF000EDB2032DE9D331BD188B0008D0140020C9
:10100000D88D00080C140020781400202C13002028
:1010100000130020CC1300201093000814080020B7
:101020000021DFF8782B92F82020002A05D1DFF884
:101030006C1B91F8321000294FD0DFF8A81C0978FA
:1010400005291DD2DFF8581B0978DFF8582B22F844
:101050001100DFF8541B09884018DFF84C1B08808A
:10106000DFF83C0B0078401CDFF8341B0870DFF819
:10107000740C0078401CDFF86C1C087000213EE006
:10108000DFF81C1B0978052903D1DFF8141B0022A7
:101090000A70DFF8141B0988DFF8042B1278DFF8D8
:1010A000043B33F81220891A4118DFF8FC2A11801A
:1010B000DFF8EC1A0978DFF8EC2A22F81100DFF8E3
:1010C000E00A0078401CDFF8D81A0870DFF8CC0A74
:1010D000002180F83210012111E0DFF8080C0078BF
:1010E00001280BD3DFF8B80A00210170DFF8B80A35
:1010F00000210180DFF8EC0B0021017000210800C5
:10110000C0B2704770B40021C0B2DFF8DC2B12EB24
:101110008002928EC0B2DFF8D03B13EB8003DB8EEF
:10112000DFF8C84BA4686425DFF8C06B766805FB60
:10113000046492B29BB29A4216D2A4B29BB29C4271
:1011400001D3002126E0A4B292B2944209D3C0B2E6
:10115000DFF8941B11EB400090F8500010F02F01C5
:1011600018E04FF6FF7115E0A4B292B2944209D391
:10117000C0B2DFF8741B11EB400090F8500010F083
:101180002F0107E0A4B29BB29C4201D3002101E0F1
:101190004FF6FF71080080B270BC7047F8B50025AB
:1011A000002611E0F6B2DFF8400B10EB8600808ECF
:1011B000F6B2DFF8341B11EB8601C98E884202D0EB
:1011C0000120B0400443761CF6B2072EEAD3DFF8C4
:1011D0001C0B8769072600E006273000461EC0B2B8
:1011E00000280ED0E4B254FA07F0C00711D5380039
:1011F000C0B2FFF787FF4FF6FF7180B2884203D07D
:1012000005002800C0B2F2BDFFB2002FE4D07F1E5F
:10121000E3E7FFB2002F01D10627DEE77F1EDCE700
:1012200080B510F0400110F02F0280B2C3060CD53B
:10123000DFF8BC0A05230380D2B252EA010050F065
:101240001000DFF8B01A488206E0DFF8A41A002286
:101250000A8080B203F083FB01BD70B5DFF8940A09
:10126000807C10F03000DFF88C1A897C11F040048B
:10127000C0B220280AD0DFF8241991F832100029D2
:1012800004D0DFF81819002281F83220C0B21028EB
:10129000C0F0EC80DFF85C0A807C800651D5DFF876
:1012A000540A808880B2FFF7BBFE002849D0DFF8DF
:1012B000F8080088052190FBF1F0DFF8381A897CE6
:1012C00011F01001DFF82C2A927C0F231A4206D06D
:1012D000DFF8142AD289D21E80B2824209DBE4B23E
:1012E000C9B251EA040050F0210080B203F037FB8C
:1012F00027E080B2DFF8F029D289D21C904210DBBF
:10130000DFF8E429528AD21E80B2824209DBE4B2BD
:10131000C9B251EA040050F0220080B203F01FFB72
:101320000FE080B2DFF8C029528AD21C904208DB5D
:10133000E4B2C9B251EA040050F0230080B203F0D5
:101340000EFBDFF8B009807CC00640F18F80DFF82B
:101350009C098569EDB2DFF8900910EB8500808E5D
:10136000EDB2DFF8841911EB8501C98E884255D0A2
:10137000002606E0E4B254F0100080B203F0EFFA69
:10138000761CF6B2022E49D2F6B2EDB2DFF8580959
:1013900010EB850010EB4600808E42F2107190FB3E
:1013A000F1F201FB1200642190FBF1F0F6B2EDB214
:1013B000DFF8341911EB850111EB4601898E6422A7
:1013C00091FBF2F302FB1311C0B2DFF820299268FF
:1013D0009042D5D1C9B2DFF8140940688142CFD11B
:1013E000EDB2DFF8040910EB450090F8500010F062
:1013F0002F00DFF80019897C890604D5DFF8F4088E
:10140000807C10F02F00F6B2002EB3D1E4B220435E
:1014100050F0100080B203F0A2FAB1E7DFF8D00874
:101420000088022822D3DFF8C8080088401EDFF8B1
:10143000C0180880DFF8B8080088012816D1DFF846
:10144000B00800210180FFF7A9FE80B2202806D154
:10145000DFF8A008807C10F00F0050F02000E4B20C
:10146000204350F0100080B203F079FA70BD00B54F
:1014700083B000A806F0A0FD5FF48030009000204B
:101480008DF8040008208DF8050001208DF8060075
:1014900000A806F04DFDE02007F0A8FD012007F0B0
:1014A000A1FD07BDDFF8F4068088022806D3DFF827
:1014B000EC068088401EDFF8E4168880DFF8DC0642
:1014C000C08B022806D3DFF8D406C08B401EDFF89D
:1014D000CC16C883DFF83008B0F85A00012808D3CA
:1014E000DFF82408B0F85A00401EDFF81C18A1F8F5
:1014F0005A00DFF81408B0F85800012808D3DFF8C4
:101500000808B0F85800401EDFF8FC17A1F8580092
:10151000DFF8F40790F86800022808D3DFF8E8073E
:1015200090F86800401EDFF8E01781F86800DFF8E7
:10153000D807B0F85C00012808D3DFF8CC07B0F872
:101540005C00401EDFF8C017A1F85C00DFF8B807A8
:10155000B0F85E00012808D3DFF8AC07B0F85E00F1
:10156000401EDFF8A417A1F85E00704700B583B0F5
:10157000DFF82806808801280BD1DFF8200600213B
:101580008170002002F071F8DFF8100600218180E0
:1015900019E0DFF808068088022814D3DFF8FC057C
:1015A000807800280FD1DFF8F40501218170002038
:1015B0000190FF2000904FF4FA734FF4FA7201216A
:1015C000002002F000F8DFF8D4058078002811D15F
:1015D000DFF8C80590F82A00002805D1DFF8BC051F
:1015E000002180F82B1010E0DFF8B005012180F811
:1015F0002B100AE0DFF8A40590F82B00002804D196
:10160000DFF89805012180F82B10DFF8900590F89D
:101610002B0000280ED1022002F027F8032002F050
:1016200024F8042002F021F8DFF87005012180F889
:101630002C1039E0DFF8640590F82C00002833D036
:10164000DFF85805002180F82C10DFF8A806807C10
:101650003F21084217D000200190FF2000904FF456
:10166000FA734FF4FA720121022001F0ACFF00205E
:101670000190FF2000904FF4FA734FF4FA720121A9
:10168000032001F0A0FFDFF86C06807C40060BD53C
:1016900000200190FF2000904FF4FA734FF4FA728B
:1016A0000121042001F08FFF07BD1CB5DFF84406BF
:1016B000807C10F04000C0B2002836D0DFF84C0625
:1016C0000078112810D1DFF82C06418A21F0400162
:1016D0004182012332224FF4FA71002003F066FCAC
:1016E000042001F0C2FF31E1DFF82006007808286D
:1016F0000AD0DFF818060078022805D0DFF80C06BB
:101700000078012840F02281012332226421002048
:1017100003F04CFC0020019003200090C823C82255
:101720000221042001F04FFF10E1DFF8E00500780E
:10173000082860D1DFF8BC05408A002845D1DFF8D1
:101740005C04808C002824D0DFF85004848CDFF8FF
:101750004C0490F8240010F03000302800D13024E0
:10176000DFF8380490F8240040060DD554F040040A
:1017700000200190FF2000904FF4FA734FF4FA72AA
:101780000121042001F01FFF200080B2FFF748FD77
:1017900002E00120FFF744FD00200190FF200090AF
:1017A0004FF4FA734FF4FA720121022001F00BFF9B
:1017B00000200190FF2000904FF4FA734FF4FA726A
:1017C0000121032001F0FFFE0EE0DFF8D003DFF877
:1017D0002415498A81840020FFF722FD022001F0B0
:1017E00044FF032001F041FF012332226421002045
:1017F00003F0DCFBAAE0DFF814050078022861D1D1
:10180000DFF8F004807C3F2108424AD0DFF8E4048E
:10181000807C10F00F04DFF8DC04807C10F03000D6
:10182000202805D154F0100080B2FFF7F9FC2BE01E
:10183000DFF8C004807CC00606D4DFF8B804807CE2
:1018400010F03000302803D10120FFF7E9FC1BE045
:10185000DFF8A004408A012803D10220FFF7E0FC52
:1018600012E0DFF89004408A022803D10320FFF73A
:10187000D7FC09E0DFF87C04408A032804D154F047
:10188000200080B2FFF7CCFC00200190FF200090E8
:101890004FF4FA734FF4FA720121032001F093FE22
:1018A00009E00020019003200090C823C8220221F3
:1018B000022001F088FE012332226421002003F07F
:1018C00075FB43E0DFF84404007811282DD1DFF8E0
:1018D0002404807C10F03F00012814DBDFF814049E
:1018E000408A50F04000DFF80C144882002001903C
:1018F000FF2000904FF4FA734FF4FA720121042094
:1019000001F061FE09E00020019003200090C8234F
:10191000C8220221022001F056FE012332224FF498
:10192000FA71002003F042FB10E0DFF8E0030078DA
:1019300018280BD1DFF8D003012180F86B100123A8
:1019400032224FF4FA71002003F030FB13BD10B5C2
:1019500088B000A8DFF8B8131CC91CC00C390C38BB
:101960008E4890F83800441EDFF8A803E4B27FF0F8
:10197000030101FB0400DFF894130978082915D14D
:101980000168491C0160E4B200AA12F814209142D7
:1019900005D1E4B200A911EB4401497801600123AB
:1019A00032226421002003F001FB9BE0DFF85C138E
:1019B0000978022918D10168E4B200AA12EB4402A6
:1019C0005278914206D1E4B200A911F81410491ED0
:1019D000016002E00168491E016001233222642196
:1019E000002003F0E3FA7DE0C848007801284AD1DE
:1019F0006A4890F83800401C684981F83800674808
:101A000090F83800062818D100210820C24A126830
:101A1000904700210920C04A126890470121002008
:101A2000BD4A1268904701210120BB4A12689047C5
:101A30005A48012180F838101EE00021E4B260000D
:101A4000C0B2B54A126890470021E4B26000401C61
:101A5000C0B2B14A126890470121E4B26000801C14
:101A6000C0B2AD4A126890470121E4B26000C01CC8
:101A7000C0B2A94A12689047012332226421002093
:101A800003F094FA2EE0A1480078112803D09F4873
:101A90000078FF2826D14148002180F83810002125
:101AA000E4B26000C0B29C4A126890470021E4B2E0
:101AB0006000401CC0B2984A126890479348007872
:101AC000112808D1954984B068462C2206F0F9FF08
:101AD0000FBC04F06EFB012332224FF4FA71002098
:101AE00003F064FA08B010BD10B52C4890F8380027
:101AF000441E8648007801284ED3284890F83800C4
:101B0000002802D1FFF7D1FD01E0FFF720FF7F4859
:101B100000781B283DD17748807C3F21084238D08F
:101B20001E4890F83800002819D11C48012180F87F
:101B3000381001210020784A1268904701210120C5
:101B4000754A12689047764A76490020C0B2052847
:101B500018D20B681360121D091D401CF6E70F48D0
:101B6000002180F838100021E4B26000C0B26A4A57
:101B7000126890470021E4B26000401CC0B2664A7F
:101B800012689047012332224FF4FA71002003F0CB
:101B90000DFA5E480021017010BD0000781400208D
:101BA0007C18002040150020721800207CB500240D
:101BB000C825ADB2002D12D05B480088002807D19F
:101BC00005F0EBF803F024FB6D1E57480A21018055
:101BD0004E4800780028ECD0002003F012FA4B4861
:101BE0000078012803D049480078112879D10020D5
:101BF000009000230A224D49002003F05CFB4C4872
:101C0000FF2101720625ADB2002D1BD04848007F90
:101C100000280DD06D1E2A0092B2464901A807F097
:101C2000F5F9002101A8FFF7C8F941480021017723
:101C30000A21002003F0A5FB07F07EF83C48007A5B
:101C4000FF28E0D001263A48008D643840F63C7108
:101C500080B2884200D30026ADB2002D0BD126A25F
:101C600026A101A807F0D2F93100C9B201A8FFF7F7
:101C7000A4F9012419E02E48007A00280AD020A2F5
:101C80001EA101A807F0C2F93100C9B201A8FFF7EF
:101C900094F90AE01BA219A101A807F0B7F93100D5
:101CA000C9B201A8FFF789F90124E4B2002C02D1DE
:101CB000F6B2002E11D1FF2364226421002003F02C
:101CC00075F90AE018480088002806D105F065F883
:101CD00003F09EFA14480A2101800C48007811286C
:101CE000F0D173BD7D180020581300200013002090
:101CF00074180020CC1300206F7574002573000049
:101D00004F4B0000457200000C1400207E1800208C
:101D1000B092000840130020300800202C1300204F
:101D20003013002004130020F80800204C08002085
:101D300078140020E09200082DE9F04FA1B017467A
:101D40001C46029002AD69600020A8620DF1440AB1
:101D50006FF0004802E0A86A401CA862387818B901
:101D6000A86A21B0BDE8F08F252816D1002028618F
:101D70006861A861E8612862686217F8011F20297C
:101D800008D023291BD02B2912D02D2914D030297B
:101D900018D01AE040F00100EFE717F8011B68685F
:101DA000029A904768600028D5D14FF0FF30D8E7FD
:101DB00040F0020080B2E0E740F00400FAE740F0B3
:101DC0000800F7E740F01000F4E72A290DD1226857
:101DD000111D216011682963002904D54942296336
:101DE00040F0040080B27F1C12E00021296309E06A
:101DF000296B414505D001EB810302EB43013039EA
:101E000029637F1C3A78A2F13001C9B20A29EFD3C5
:101E100039782E291CBF4FF0FF31E9621DD117F828
:101E2000011F2A2906D12268111D21601168E9626B
:101E30007F1C12E00021E96209E0E96A414505D012
:101E400001EB810302EB43013039E9627F1C3A78F0
:101E5000A2F13001C9B20A29EFD3A8863978DFF898
:101E6000540B07F0D7F908B117F8010B8DF83E00B5
:101E70009DF83E00682804D1387868280AD162208D
:101E800005E06C2806D138786C2803D171208DF8D4
:101E90003E007F1C11A8E8603A781046413800F0F7
:101EA000B680001F022840F2B280133870D0093883
:101EB00000F0AD80801E17D0401E1FD0401E0228AB
:101EC00040F2A580001F19D0401F00F0CF80401EB7
:101ED0005ED0401E00F0F880C01E00F00081801E21
:101EE00056D0C01E54D00FE12869411C29612268D8
:101EF000111D2160116800F80A100CE19DF83E00E8
:101F00006C280FD071280BD12068C01D20F007006D
:101F10002060034603F108002060D3E9000106E0D9
:101F20006A28F1D02168081D20600868C1179DF853
:101F30003E30682B08BF00B207D0622B08BF40B20A
:101F400003D0742B01D07A2B00D1C117002904DAF9
:101F50002B695E1C2E612D260DE0AB8E9E0704D5ED
:101F60002B695E1C2E612B2605E0DB0705D52B694E
:101F70005E1C2E61202603F80A602B6911AE3344E3
:101F8000AB60CDE90001114600A800F058F9C2E0AD
:101F90009DF83E006C280FD071280BD12068C01D21
:101FA00020F007002060034603F108002060D3E919
:101FB000000106E06A28F1D02168081D2060086849
:101FC00000219DF83E30682B08BF80B207D0622BFD
:101FD00008BFC0B203D0742B01D07A2B00D10021EE
:101FE00095F834301B07C8D509B90028C5D042F090
:101FF0002003782BC1D12B695E1C2E61302603F89B
:102000000A602B695E1C2E6103F80A20B5E7206880
:10201000C01D20F007002060034603F10800206087
:10202000D3E90001CDE90001BDF80600000404D5A4
:102030002869411C29612D210DE0A88E810704D556
:102040002869411C29612B2105E0C00705D52869B5
:10205000411C2961202100F80A10286911A94018A3
:10206000A860114600A800F071F954E09DF83E0008
:1020700062280BD0682820D06A280ED06C2815D092
:1020800071280AD0742811D07A280FE0A86A226833
:10209000111D2160116808703DE0A86AC11723680E
:1020A0001A1D22601A68C2E9000134E02168081D87
:1020B00020600868A96A01602DE0A86A2268111DE5
:1020C00021601168088026E02168081D20600868EA
:1020D00011A9A9600021CDE90001782154E7216808
:1020E000081D20600868A860EA6A002A02D506F088
:1020F00027FF07E0002106F077FD00281ABFA96836
:10210000401AE86A686106E02869411C296102B941
:10211000252200F80A207F1C286B2969401AE969EA
:10212000401A6969401A296A401AA969401A696AFD
:10213000A0EB010995F83400400711D420208DF858
:1021400040000026B9F1010F0ADB012210A900A806
:1021500000F03AFC00287FF428AE761C4E45F4DBF4
:102160002A6911A900A800F02FFC00287FF41DAEF9
:1021700030208DF84000EE694FF0000B012E0BDB94
:10218000012210A900A800F01FFC00287FF40DAE6A
:102190000BF1010BB345F3DB6A69A96800A800F0F5
:1021A00013FC00287FF401AE30208DF840002E6A29
:1021B0004FF0000B012E0BDB012210A900A800F04C
:1021C00003FC00287FF4F1AD0BF1010BB345F3DB09
:1021D000AA696869A968411800A800F0F5FB002801
:1021E0007FF4E3AD30208DF840006E6A4FF0000BB5
:1021F000012E0BDB012210A900A800F0E5FB00284E
:102200007FF4D3AD0BF1010BB345F3DB95F834004C
:1022100040077FF5A3AD20208DF840000026B9F1DE
:10222000010FFFF69BAD012210A900A800F0CCFB26
:1022300000287FF4BAAD761C4E45F4DB8EE52DE91F
:10224000FA4786B00446606900909DF818006F2830
:1022500008BF082705D040F02000782814BF0A27BF
:1022600010273C25D4E90001064689469DF8182030
:10227000642A01D0692A04D1002902DA764269EB86
:102280004909B9F1000F02D10EB9606B60B3A5F135
:1022900001084546F817CDE9047030464946DDE9A6
:1022A000042305F08FFACDE90201B246DDE90223ED
:1022B000DDE90401A0FB02695046801B3030C0B24A
:1022C0003A2803D39DF8181051390818009908F8D6
:1022D0000100DDE90269B9F1000F00D126B12069E2
:1022E000009969188842D2D3082F0BD194F83C008A
:1022F000000707D50098285C302803D06D1E009891
:1023000030212954C5F13C00E06100996918216130
:10231000616B884206DA081A6062A08F20F0100014
:10232000A08710E000290ED594F83C1001F01401AC
:10233000102908D1A16BA269891A626A891A0D1A3B
:10234000012DA8BF656208B0BDE8F0872DE9F24F06
:102350008EB0054604AFD5E90001CDE902019DF834
:10236000380040F020008DF8000061280BD0686B29
:10237000002848BF062005D405D19DF80000672835
:1023800001D101206863E888C0F30A1040F2FF71B0
:10239000884222D1A8790F21084205D1A88818B90E
:1023A000688808B9288868B10320E8619DF838007A
:1023B0006138C0B21A2836D389A10322286906F0F1
:1023C00073FBC7E10320E8619DF838006138C0B2B3
:1023D0001A2834BF83A184A1EFE7012804DA284634
:1023E00005F074FF01281BDA40F2FE31EA8861F340
:1023F0000E12EA80441A4FF0FF309DF80010612958
:1024000017D12A69511C29613021117029694A1C90
:102410002A619DF83820612A0CBF7822582204E0F6
:1024200000240020E9E7CDA1C7E70A70A969891C4B
:10243000A96110B90026B04682E19DF8000061282C
:1024400040F09580686B00284EBF2126461C36B2AE
:10245000771CD5E900ABDDE902010022002306F07C
:10246000EDFD3ABF8BF00040CDE902A0CDE902AB13
:10247000A4F104088DF810200DF11109012F33DBB0
:10248000DDE902010022002306F0F0FD2CD21C2120
:1024900002A805F0CBFBDDE9020106F0D1FB044602
:1024A000FF1F012F09DB06F0F9FD02460B46DDE9AF
:1024B000020104F0E5FCCDE9020109F20700072161
:1024C000012C0BDB491E5EBF04F00F0200F8012D4A
:1024D0002411F5D502E0002200F8012D491EFAD59D
:1024E00000F20709012FCBDA0DF11100A9EB000072
:1024F0000DF11107B042B8BF06B2002E30D48642AB
:1025000006DA04A830184078082828BF0F2000D227
:102510000020314604AA8A1801E0761E36B2491E10
:1025200012F801398342F8D00F2804D104A8081802
:102530004278521C4270002904D504AF761C36B292
:1025400008F10408304609E0C15D3031C9B23A29CA
:1025500003D39DF838203A3A5118C155401EF3D59F
:10256000686B002840F1EC80701E6863E8E0DDE9EC
:1025700002010022002306F061FD05D2DDE902011F
:1025800081F00041CDE9020124B247F29750604347
:10259000DFF8241490FBF1F80FFA88F8C8F107046B
:1025A0000027DFF81894012C20DBDDE902ABE007FF
:1025B00007D5504659463A464B4604F0C3FA824680
:1025C0008B466410384649463A464B4604F0BAFA00
:1025D00007468946002CEAD1CDE902AB28E000BFCE
:1025E0004E414E00696E6600494E46006442924676
:1025F000DFF8CCB314D0E00707D5504659463A4629
:102600004B4604F09FFA82468B4664103846494692
:102610003A464B4604F096FA07468946002CEAD122
:10262000DDE9020152465B4603F0FAF9CDE9020109
:102630009DF8000066280CBF08F10A000620696BAF
:102640004418142CA8BF132430208DF810000DF16D
:102650001106012C30DBDB4F11E0DDE9020106F051
:1026600005FB06F025FD02460B46DDE9020104F0FC
:1026700007FC00223B4604F065FACDE90201DDE9E2
:10268000020106F0F3FA06F1080104220A23B0FB66
:10269000F3F603FB1600303001F8010DB6FBF3F042
:1026A00003FB1063303301F8013D521EEED101F1FE
:1026B0000806083C012CD0DA0DF11100301A0DF19A
:1026C00011079DF81110302906D1401EA8F101080C
:1026D00017F8011F3029F8D09DF80010662904BFB3
:1026E0000FFA88F808F1010103D065290CBF012118
:1026F00000216A6B8E1836B2B042B8BF06B2002E07
:102700001ED4864204DAF05D352828BF392000D275
:1027100030203146CA19521E01E0761E36B2491EDB
:1027200012F801398342F8D0392802D1C85D401C23
:10273000C855002904D57F1E761C36B208F1010861
:102740000FFA88F0009033463A469DF83810284634
:1027500000F006F80FB0BDE8F08F00006E616E006B
:102760002DE9F04385B00546894690461E46BDF9E1
:1027700030406F6B012EBCBF01260FF2342849F0A8
:102780002000662807D067287AD16FF003018C42B9
:102790007CDBBC427ADA641C66280AD095F83C00DF
:1027A000000702D4BE42B8BF374624B23F1B48BF21
:1027B00000272869E96924B2012C21DA4A1C302358
:1027C0000B54012F03DA95F83C10090702D52E218E
:1027D0001154521CEA61E742B8BF7C4224B2614204
:1027E000A962E719B742B8BF3E4636B22E623246FA
:1027F0004146EB69181806F057F9B81BE862BFE0CC
:102800000818A64216DA3246414606F04DF9E96943
:102810007118E961A01BA862012F03DA95F83C004A
:10282000000705D528692E220A54286A401C286210
:10283000EF62A5E02246414606F036F9E869201825
:10284000E861361B012F03DA95F83C10090704D51F
:10285000411CE96129692E22425436B2B742B8BF01
:102860003E4636B2324604EB0801E8692B69C018CF
:1028700006F01AF9E8693018E861B81BA8627FE031
:10288000B9F1610F14D14FF0700916E0BE4204DABD
:1028900095F83C10090758BF37467F1E48BF0027F0
:1028A000B9F1670F14BF4FF045094FF0650904E017
:1028B000B9F1410F08BF4FF05009E9694A1C286976
:1028C00018F8013B0B54012F03DA95F83C10090767
:1028D00002D52E211154521CEA61012F10DB761E05
:1028E00036B2B742B8BF3E4636B232464146EB69D1
:1028F000181806F0D9F8E8693018E861B81BA86222
:10290000E869296900EB010808F8019B002C5CBF0D
:102910002B2008F8010B03D52D2008F8010B644289
:10292000002602AF24B2012C0EDB0A22214600A8A9
:1029300006F0B6FC019807F8010B009C761C24B247
:10294000012CF2DA022E06DA49F02000652804BFD5
:10295000302008F8010B1EB9302008F8010B09E0FF
:10296000012E07DB761E02A8305C303008F8010B20
:10297000012EF7DAE86929694018A8EB00002862FF
:1029800095F83C0000F0140010280DD1A869E96901
:102990000818A96A0818296A0818E96A0818A96BAA
:1029A0008842BCBF081A686205B0BDE8F083000029
:1029B00030000000F0920008A086010000002440D2
:1029C0000000F03F84D79741F8B504460D461646FF
:1029D00000208EB14FF0FF3705E0206B401C2063D4
:1029E0000020761E08D015F8011BE068A268904709
:1029F000E0600028F1D13846F2BD000070B4002339
:102A00000FE05C5C44405C545C5C4FF48075B3FB4D
:102A1000F5F606FB1536DFF8B05A755D6C405C5470
:102A20005B1C9342EDD370BC7047F8B504000D00F9
:102A300016000027EDB2002D01D100203FE12570E6
:102A4000002007E080B2011980B2DFF8802A825CA2
:102A50004A70401C80B20828F4D3002006F019FC0C
:102A600006F08AFA05F002FE4FF4807190FBF1F255
:102A700002FB1102A272EDB22800012815D0022833
:102A800027D0042878D0062800F00981082820D013
:102A90000A2800F0BD800C2800F0F6800D2800F018
:102AA000F380F02800F0FB8007E100206072DFF87F
:102AB000200A0088E072DFF8180A008880B2000A55
:102AC0002073022214F10B01A07AFFF797FF0D2764
:102AD000F3E0EDB2022D02D10020607204E0DFF8D5
:102AE000F40990F864006072DFF8E4193C250020D6
:102AF00005E080B202190B78D372491C401C80B2E9
:102B00000828F6D3DFF8C809B0F90800642190FB63
:102B1000F1F1E17489B2080A2075DFF8B40940893F
:102B2000642190FBF1F1617589B2080AA075DFF8A4
:102B3000A819002005E080B202190B78D375491C52
:102B4000401C80B20A28F6D3DFF89019002006E076
:102B500080B202190B7882F82130491C401C80B2E7
:102B60002628F5D3ADB22A0014F10B01A07AFFF7A5
:102B700045FF15F10B07A0E000206072002020E067
:102B800080B2DFF8481911EB8001C98E80B214EBD6
:102B90008002D17280B214EB800289B2090A1173EB
:102BA00080B2DFF8281911EB8001898E80B214EB16
:102BB0008002517380B214EB800289B2090A9173CA
:102BC000401C80B20728DBD3002013E080B2DFF87E
:102BD000FC1811EB4001B1F8501080B214EB400228
:102BE00082F8271080B214EB400289B2090A82F8F9
:102BF0002810401C80B20728E8D32A25ADB22A004D
:102C000014F10B01A07AFFF7F9FE15F10B0754E060
:102C1000DFF8C00890F864006072DFF8B018DFF8E1
:102C2000C00800884118DFF8B8080088E072DFF8B3
:102C3000B008008880B2000A2073DFF8A808008876
:102C40006073DFF8A008008880B2000AA07300203B
:102C500005E080B202190B78D373491C401CDFF8E1
:102C60008428128880B29042F3D3DFF87808008875
:102C7000021D14F10B01A07AFFF7C0FEDFF8640813
:102C8000008810F10F0718E000206072E672012240
:102C900014F10B01A07AFFF7B1FE0C270DE0DFF86D
:102CA000340890F864006072E672012214F10B019E
:102CB000A07AFFF7A3FE0C27FFE7380080B2F2BD31
:102CC00038B5040010001A005423237046236370A3
:102CD000A17089B20B0AE370002323710023637192
:102CE00089B2032907D0D2B20100C9B214F1080099
:102CF000FFF79BFE0500A571ADB2280AE07115F142
:102D0000080189B2200002F020FBADB22919087237
:102D1000ADB22919C0F30720487215F10A0080B23C
:102D200032BD80B5002000230022DFF8A817B1F8DB
:102D30006010002940F0A581DFF898170978042970
:102D400080F09F81DFF88C1791F8541000290BD088
:102D5000DFF8801791F86A10002905D1DFF87417A1
:102D600091F86B10002957D0DFF8680790F86B00D6
:102D7000002812D0002300221021DFF86C07FFF793
:102D80009FFFDFF85017002281F86B20DFF844170F
:102D900010F16402A1F8602066E1DFF8380790F8CE
:102DA0006A00002812D0002300226621DFF83807CD
:102DB000FFF786FFDFF81C17002281F86A20DFF892
:102DC000141710F16402A1F860204DE100230022E5
:102DD0000821DFF81407FFF773FFDFF8F8164FF448
:102DE000FA62A1F86020DFF8EC16B1F85610491C21
:102DF000DFF8E026A2F85610DFF8D816B1F8621016
:102E000051F00801DFF8CC26A2F86210DFF8C416F2
:102E1000002281F8542027E1DFF8B816B1F86210DB
:102E20000129C0F0AE80DFF8AC0690F86200C00760
:102E30000AD506220123DFF89C06B0F8621021F0C3
:102E40000101A0F8621094E0DFF8880690F86200B3
:102E5000800709D50822DFF87C06B0F8621021F05F
:102E60000201A0F8621084E0DFF8680690F86200C2
:102E7000400709D50A22DFF85C06B0F8621021F09D
:102E80000401A0F8621074E0DFF8480690F86200D0
:102E9000000709D50422DFF83C06B0F8621021F0E3
:102EA0000801A0F8621064E0DFF8280690F86200DC
:102EB000C0060AD506220023DFF81806B0F8621013
:102EC00021F01001A0F8621053E0DFF8080690F836
:102ED000620080060AD50F22DFF8F805B0F862100C
:102EE00021F02001A0F86210012342E0DFF8E405A0
:102EF00090F8620040060AD50C22DFF8D805B0F839
:102F0000621021F04001A0F86210012331E0DFF8E7
:102F1000C40590F8620000060AD50C22DFF8B4055B
:102F2000B0F8621021F08001A0F86210002320E0C8
:102F3000DFF8A005B0F86200C0050AD50D22DFF861
:102F40009405B0F8621021F48071A0F8621001239A
:102F50000FE0DFF88005B0F86200400409D5F022E8
:102F6000DFF87005B0F8621021F48041A0F862101B
:102F70000123DBB2D2B20721DFF86C05FFF7A0FE18
:102F80006CE0DFF85015B1F85A10002905D0DFF8D1
:102F9000441591F8681001291AD100230222072153
:102FA000DFF84405FFF78CFEDFF8281591F868106C
:102FB000012905D1DFF81C15002281F868204DE0B9
:102FC000DFF81015DFF80425D28DA1F85A2045E06E
:102FD000DFF80015B1F85C1000290FD1DFF8F41408
:102FE000B1F8621051F00801DFF8E824A2F862108D
:102FF000DFF8E0140A22A1F85C202FE0DFF8D414F7
:10300000B1F85810002917D1002301220721DFF859
:10301000D804FFF755FEDFF8BC14DFF8B024928D1A
:10302000A1F85820DFF8AC1491F86910491CDFF8BA
:10303000A42482F8691011E0DFF89814B1F85E104A
:1030400000290BD1002300220821DFF89C04FFF7A0
:1030500037FEDFF880141E22A1F85E20DFF874141A
:1030600010F16402A1F8602080B2012809D3002188
:1030700000910023020092B2DFF86C14002002F0ED
:103080001AF9012002BD30B583B004000025207874
:10309000542802D16078462801D0002012E2A51CF5
:1030A0002888062840F0C481E079A17911EB00203E
:1030B000B0F10B02257A92B214F11301A07CFFF754
:1030C0009DFCEDB2012D0BD0052D31D0072D00F068
:1030D0009880092D00F09E800C2D00F0B880A6E1AC
:1030E000E07C46281ED0207D01281BD0607D012871
:1030F00018D0A07DDFF8F4138968884205D1E07DFF
:10310000DFF8E813496888420CD0207E0190E07D0A
:103110000090A37D627D217DE07C10F5FA6080B295
:1031200002F0FAFFDFF8AC03002180F86910C8E173
:10313000E079A17951EA002292B2352A40F0C181AA
:10314000002020E080B214EB8001097D80B214EBF6
:103150008002D27C52EA012180B2DFF8702312EBA8
:103160008002D18680B214EB8001897D80B214EB9D
:103170008002527D52EA012180B2DFF8502312EB27
:1031800080029186401C80B20728DBD3002011E02A
:1031900080B214EB400191F8301080B214EB400281
:1031A00092F82F20114380B2C84A12EB4002A2F8D5
:1031B0005010401C80B20728EAD37421DFF8300396
:1031C00005F02CFB7422DFF82813C04805F050FBF3
:1031D000BF48807CC00603D5BD48408AFEF720F872
:1031E000BC48B0F8620050F00100BA49A1F8620092
:1031F000B848B0F8620050F00800B649A1F8620083
:103200005FE1B448B0F8620050F00200B149A1F8A3
:10321000620056E1E07C217D10EB0120B04908807E
:10322000607DA17D10EB0120AE490880AC4800888C
:10323000AC4909880818602880F24381A548B0F895
:10324000620050F00400A349A1F8620039E1E07C7B
:10325000802880F0E380E07C00285AD19C48408A96
:1032600000280ED0A3489A49498A8184022000F0A0
:10327000FCF9032000F0F9F9042000F0F6F900252C
:10328000BCE09C48808C002823D09A48B0F9245098
:10329000984890F8240010F03000302800D13025F4
:1032A000944890F82400400614D555F04005914804
:1032B00090F82C0000280DD100200190FF200090F4
:1032C0004FF4FA734FF4FA720121042000F07BF9F5
:1032D00000E00125874890F82C00002840F08E80FF
:1032E00000200190FF2000904FF4FA734FF4FA721F
:1032F0000121022000F067F900200190FF200090DA
:103300004FF4FA734FF4FA720121032000F05BF9D5
:1033100074E0E57C774890F82C00002817D1002055
:103320000190FF2000904FF4FA734FF4FA720121DC
:10333000022000F048F900200190FF2000904FF497
:10334000FA734FF4FA720121032000F03CF9E07C9B
:1033500010284DD3E07CC0060CD55D48807C10F071
:103360002F0555F010055A48807C400646D555F08B
:10337000400543E0E07C800610D55548807C10F085
:103380000F0555F020055248807C400601D555F0C8
:1033900040055848012180F832102FE0E07C4006BB
:1033A0002CD55FF0FF354A48807C400608D5484858
:1033B000418A21F040014182042000F056F91DE0CD
:1033C0004348408A50F0400041494882494890F8BB
:1033D0002C00002812D100200190FF2000904FF413
:1033E000FA734FF4FA720121042000F0ECF805E0C2
:1033F0003748807C400601D555F040052DB2002DA0
:1034000003D4280080B2FDF70BFF3248B0F8620009
:1034100050F040002F49A1F8620052E02D48B0F86A
:10342000620050F080002B49A1F8620049E048E0BA
:103430002888082802D02888662835D1E079A17923
:1034400011EB002292B25F2A22D1542214F113010F
:10345000A07CFFF7D3FA1F49002005E080B20219D3
:10346000D27C0A70491C401C80B25428F6D31848FC
:1034700018494978018217480078032804D1154873
:10348000012180F8541003E01248002180F8541004
:103490002888662803D10F48012180F86A100D485A
:1034A0000021A0F856100CE028880F2809D1E079F7
:1034B000A17911EB002292B20C2A02D10D48E17CD5
:1034C000017201203EBD0000347D00085813002029
:1034D000CC1300200C140020D8130020E41300208B
:1034E000641800206618002000110020001300203E
:1034F00000F801087814002010B584B000240121E0
:10350000DFF8580403F0FEF80020040016E0E4B2EF
:10351000DFF84C0410EBC4008088ADF808000320ED
:103520008DF80A0010208DF80B0002A9E4B2DFF834
:10353000300450F8340003F06FF8641CE4B2052C3A
:10354000E5D300200190FF2000904FF4FA734FF470
:10355000FA720121002000F036F800200190FF20CF
:1035600000904FF4FA734FF4FA720221012000F038
:103570002AF8002001900120009064234FF47A7211
:103580000221022000F01FF800200190012000908D
:1035900064234FF47A720221032000F014F8002013
:1035A00001900120009064234FF47A7202210420DC
:1035B00000F009F8DFF8A8038188DFF8A4030068A9
:1035C00003F09AF81FBDF0B4049C059DC0B20E260E
:1035D000DFF8907306FB0076B678022E0DD0C0B2ED
:1035E0000E26DFF8807306FB0076B678C0B20E2791
:1035F000DFF870C307FB00C73E70C0B20E26DFF8CD
:10360000647306FB0076B170C0B20E21DFF854631C
:1036100001FB006100268E80C0B20E21D14E01FB5D
:1036200000610026CE8092B20A2192FBF1F1C0B275
:103630000E22CC4E02FB006211819BB20A2193FB49
:10364000F1F1C0B20E22C74B02FB00325181C0B271
:103650000E21C44A01FB00210C73C0B20E21C14AE5
:1036600001FB00204570F0BC7047C0B20E21BD4A7E
:1036700001FB00218978002929D0C0B20E21B94A66
:1036800001FB002100228A70C0B20E21B54A01FB65
:10369000002100228A80C0B20E21B24A01FB002123
:1036A0000022CA80C0B20E21AE4A01FB00210022D6
:1036B0000A81C0B20E21AB4A01FB002100224A81DF
:1036C000C0B20E21A74A01FB002000210173704700
:1036D00010B50400E4B20E20A24A00FB042080785A
:1036E000022840F0CA80E4B20E209E4A00FB04206B
:1036F000007B0128C0F0B480E4B20E20994A00FBA0
:1037000004204078002835D1E4B20E20954A00FB11
:103710000420C088002877D1C9B200290BD1E4B2B7
:103720008F4810EBC4008188E4B28D4850F8340013
:1037300002F0E5FF0AE0E4B2894810EBC40081889A
:10374000E4B2874850F8340002F0D6FFE4B20E200D
:10375000844900FB0410E4B20E21824A01FB0421DB
:1037600009898180E4B20E207E4900FB041001210A
:10377000417049E0E4B20E207A4A00FB04208088C0
:10378000002841D1C9B200290BD1E4B2744810EB32
:10379000C4008188E4B2724850F8340002F0ACFFF3
:1037A0000AE0E4B26E4810EBC4008188E4B26C48D1
:1037B00050F8340002F0A3FFE4B20E20694900FB88
:1037C0000410E4B20E21674A01FB04214989C1803B
:1037D000E4B20E20634900FB041000214170E4B202
:1037E0000E20604900FB0410007BFF280CD2E4B2DD
:1037F0000E205C4900FB0410007B401EE4B20E2149
:10380000584A01FB04210873E4B20E20554900FB1D
:103810000410808801280CD3E4B20E20514900FB2B
:1038200004108088401EE4B20E214E4A01FB0421A0
:103830008880E4B20E204B4900FB0410C0880128A8
:10384000C0F08A80E4B20E20464900FB0410C08814
:10385000401EE4B20E21434A01FB0421C8807BE0F4
:10386000E4B20E203F4900FB0410E4B20E213D4AB1
:1038700001FB0421097881706EE0E4B20E20394A20
:1038800000FB04208078012833D1E4B20E20354AB1
:1038900000FB0420407800285ED1C9B200290BD17A
:1038A000E4B22F4810EBC4008188E4B22C4850F8F1
:1038B000340002F024FF0AE0E4B2294810EBC4000F
:1038C0008188E4B2264850F8340002F015FFE4B2D3
:1038D0000E20244900FB04104078002801D101206B
:1038E00000E00020E4B20E211E4A01FB04214870D2
:1038F00032E0E4B20E201B4A00FB0420407801288D
:103900002AD1C9B200290BD1E4B2154810EBC4008A
:103910008188E4B2124850F8340002F0EDFE0AE06B
:10392000E4B20F4810EBC4008188E4B20C4850F8B0
:10393000340002F0E4FEE4B20E200A4900FB041059
:103940004078002801D1012000E00020E4B20E21DF
:10395000044A01FB0421487010BD00000002300041
:10396000F4900008F814002010B5002405E00121AF
:103970002000C0B2FFF7ACFE641CE4B2022CF6D308
:10398000E4B2052C06D200212000C0B2FFF7A0FE51
:10399000641CF5E710BD000010B50400012000F024
:1039A0004BFC2000C0B200F001F810BD4000DFF871
:1039B0004C140870DFF84404007850F00100DFF880
:1039C00040140870704738B5040000F001F9050094
:1039D000EDB2002D04D14FF22D3000F014F90500A6
:1039E000EDB2002D02D100F0FEF80500EDB2002D81
:1039F00005D100220121200000F017F9050000F098
:103A0000FDF82800C0B232BD10B500F0E1F80400A6
:103A1000E4B2002C04D143F2410000F0F4F80400B9
:103A200000F0ECF82000C0B210BD70B504000D002D
:103A300000F0CEF80600F6B2002E40F08A80E4B224
:103A4000002C59D0022C01D02BD380E0EDB2002DF8
:103A500006D0022D10D009D3042D19D012D31DE0A9
:103A600042F22F0000F0CFF8064372E042F22D1030
:103A700000F0C9F806436CE042F22B2000F0C3F8D6
:103A8000064366E042F2293000F0BDF8064360E0EC
:103A900042F22A7000F0B7F806435AE056F080066A
:103AA00057E0EDB2002D06D0022D10D009D3042D21
:103AB00019D012D31DE042F2240000F0A4F806430E
:103AC00047E042F2261000F09EF8064341E042F241
:103AD000202000F098F806433BE042F2223000F04C
:103AE00092F8064335E042F2217000F08CF806436C
:103AF0002FE056F080062CE0EDB2002D06D0022D0E
:103B000010D009D3042D19D012D31DE042F2320097
:103B100000F079F806431CE042F2301000F073F830
:103B2000064316E042F2362000F06DF8064310E03E
:103B300042F2343000F067F806430AE042F2377090
:103B400000F061F8064304E056F0800601E056F00C
:103B5000800600F053F83000C0B270BD70B582B07E
:103B600004000D0000F034F80600F6B2002E04D177
:103B70004FF4604000F047F80600F6B2002E02D184
:103B800000F031F80600F6B2002E06D10022002126
:103B90000DF1020000F049F80600F6B2002E05D142
:103BA0000022012100A800F040F80600F6B2002E25
:103BB00009D1BDF8020000F093F82080BDF80000A4
:103BC00000F0A4F8288000F019F83000C0B276BDEB
:103BD00080B5012000F069FB88480178012000F0E1
:103BE000CEFBC0B202BD80B5012000F05EFB844870
:103BF0000178012000F0C3FBC0B202BD80B50120F6
:103C000000F088FB01BD38B50400A4B2210AC9B296
:103C1000012000F0B4FB05002100C9B2012000F032
:103C2000AEFB05432800C0B232BD38B504000D001C
:103C30001300DBB2002200A9012000F011FCC0B289
:103C4000002806D1002300220DF10101012000F01F
:103C500007FCC0B2002807D100232A00D2B20DF120
:103C60000201012000F0FCFBC0B2002805D19DF844
:103C70000220022100A800F026F89DF800109DF80F
:103C8000012052EA01212180C0B232BD30B4FF22AE
:103C9000002400E0641CE4B2C9B28C420FD2E4B24A
:103CA000235C5A40082301E052005B1EDBB2012B6B
:103CB000F0D31506F8D5520092F03102F5E7100066
:103CC000C0B230BC704710B51400C9B2FFF7DEFFB8
:103CD000C0B2E4B2A04201D0022000E0002010BD3A
:103CE00000B580B205F054FA05F04EF8454A464B4F
:103CF00002F028FF0022454B04F008FA0022444B52
:103D000004F004FA04F09CFF00B200BD00B580B2DC
:103D100005F03EFA05F038F83E4A3F4B02F012FF3C
:103D200000223B4B04F0F2F904F08AFF00B200BD20
:103D300070B582B004000D00002600A8FFF743FE16
:103D40000600BDF80000C00607D5FFF75DFE0600BF
:103D500000210020FFF769FE060029002000FFF780
:103D6000FDFE06003000C0B276BD80B52B4800785D
:103D7000401C2A4908702948007803283BD100A933
:103D80000DF10200FFF7D4FFBDF80200BDF80010EE
:103D9000084300B2002814D12148002101812048A5
:103DA000002141811E48008850F006001C4908800F
:103DB0001B4890F8280050F00200194981F82800AB
:103DC00016E01748BDF8021001811548BDF8001033
:103DD0004181134800884FF6F97108401049088066
:103DE0000F4890F8280010F0FD000D4981F82800D8
:103DF0000A480021017001BD000000007918002070
:103E00007A18002027FA7C941117D13F0094B1C092
:103E10000000E03F802BD9B11188C33F7B18002000
:103E2000CC1300201CB5C0B2002832D174228D49B9
:103E30008D4804F02EFD8C48808980B2410A89B2F9
:103E400042F2107280B2431113F00F0364246343F3
:103E500002FB013180B210F01F00401883498842F4
:103E600026D0012000F068F874217E4804F0D6FCCA
:103E700074227C497C4804F0FBFC00200190002067
:103E800000900D230B22072140F2E17002F044F96B
:103E90000EE0C0B201280BD1002000F04DF87421D3
:103EA000704804F0BBFC74226E496F4804F0E0FCDB
:103EB0006F48012181706E48012180F82A106C48FA
:103EC000B42181806B488069002804D16948664923
:103ED000096E81610BE0674880696349096E401A89
:103EE000B0F5B46F03D963485F49096E81615E48DC
:103EF000006B60498969401A05F04AF95E4904F08F
:103F000079F904005848006B05F042F901002000DF
:103F100003F090FF04F038FF0022584B04F0F6F84D
:103F200004F0EEFB04F0C8FF5249888254484FF475
:103F3000FA61A0F8601013BD10B45249C0B2002855
:103F400000F08E8000200BE00A780A2392FBF3F445
:103F500003FB14223032C0B2434BC254491C401CF4
:103F6000C0B2082813D20A78303AD2B20A2A09D34A
:103F70000A78413AD2B21A2A04D30A78613AD2B204
:103F80001A2AE1D2C0B2384A0B788354E6E73648A1
:103F900064210181344864214181334842F2F42193
:103FA000818131482321C1812F484B2101822E4834
:103FB000732141822C48962181822B48FA21C182AB
:103FC00029484FF47A710183274840F6AC51418368
:103FD000254840F6B8318183234841F27071C1838E
:103FE00021484FF47A7101841F484FF4FA614184EB
:103FF0001D4840F6B83181841B484FF4C871C18414
:1040000019484FF4FA71018517484FF4167141852C
:104010001548B421818514484FF46171C185124857
:1040200019490163002015E0C0B20F4911EB80016E
:104030004FF461728A86C0B20B4911EB80014FF4D4
:10404000C862CA86C0B2084911EB40010122A1F83A
:104050005020401CC0B20728E6D303480021016667
:1040600010BC704700F8010858130020E09A0200C5
:1040700078140020CC1300200000C8420000E03F6C
:104080000C140020EAF7FF1F200508002DE9F0417D
:1040900085B0C1F34203C9B20C0911F00106E11861
:1040A000DBB2012B00D3491C002A01D5574200E0A6
:1040B0001700002511E05FF00A0CB7FBFCFE0CFBBB
:1040C0001E7C1CF1300CEDB20DF1000E05F80EC097
:1040D0005FF00A0CB7FBFCF76D1CEDB2DBB29D4242
:1040E000E9D3002511E05FF00A0CB7FBFCFE0CFBE6
:1040F0001E7C1CF1300CEDB20DF1080E05F80EC05F
:104100005FF00A0CB7FBFCF76D1CEDB2E4B2A54200
:10411000E9D35FF0000C5FF0000E0027002505E0FA
:104120005CF0010CEDB205F800E06D1CEDB2E4B2FC
:10413000A54222D2E4B2EDB2B4EB050E0DF10808AF
:104140001EEB080E1EF801EC5FFA8EFEBEF1300F7A
:10415000E6D15FFA8CFCBCF1010F02D0F6B2012E61
:1041600003D1EDB205F800E0DFE7EDB25FF0200823
:1041700005F8008057F00107D7E75FFA8EFEBEF121
:10418000300F03D1EDB22C1804F801ECDBB2012B97
:1041900003D3EDB22E242C546D1C01240AE0DBB2B3
:1041A000E4B21E1B0DF1000C16F80C60EDB22E549B
:1041B0006D1C641CDBB2E4B2A342F0D2EDB200236A
:1041C0002B54002A29D5FFB2012F11D10D0000E098
:1041D0006D1EEDB2012D20D3EDB2291811F8011C8E
:1041E0002029F5D1EDB228182D2100F8011C14E08A
:1041F0000278302A02D12D2101700EE00D0006E078
:10420000EDB2291811F8011CEDB229546D1EEDB262
:10421000012DF5D2EDB22D21295405B0BDE8F08174
:10422000002103E0521C242AFCD3491C814201D204
:104230000022F8E770470000C0B2002802D04FF417
:10424000006100E08021DFF884231160C0B2002803
:1042500002D04FF4806100E04021DFF8702311604C
:10426000C0B2012810D1DFF86803006830F47F4045
:10427000DFF85C130860DFF85803006850F4AA40C8
:10428000DFF84C1308600FE0DFF848030068000215
:10429000000ADFF840130860DFF83803006850F0C8
:1042A000AA40DFF830130860704710B50400E4B28C
:1042B000002C02D04FF4006000E08020C349086069
:1042C0000120FFF7ADFFE4B2002C02D04FF4806074
:1042D00000E04020BD4908600120FFF7A1FFE4B2E3
:1042E000002C02D05FF0006001E05FF40000B749ED
:1042F00008600A20FFF794FFE4B2002C02D05FF0C0
:10430000806001E05FF48000B04908600A20FFF798
:1043100087FF10BD10B50400E4B2002C02D05FF09E
:10432000806001E05FF48000A84908600120FFF789
:1043300077FFE4B2002C02D05FF0006001E05FF490
:104340000000A24908600120FFF76AFFE4B2002CD8
:1043500002D04FF4806000E040209C4908600A20B1
:10436000FFF75EFFE4B2002C02D04FF4006000E0E3
:104370008020964908600A20FFF752FF10BDF8B56B
:1043800004000E000025802708E05FF480008F49BC
:1043900008600120FFF744FFFFB27F08FFB2012F42
:1043A0002AD337420AD1E4B2002C02D05FF0006079
:1043B00001E05FF400008549086008E0E4B2002CE9
:1043C00002D04FF4006000E08020804908600120A6
:1043D000FFF726FFE4B2002C02D04FF4806000E02B
:1043E00040207A4908600520FFF71AFFE4B2002C4C
:1043F000CBD05FF08060CAE7E4B2002C02D04FF46B
:10440000006000E0802071490860E4B2002C02D016
:104410004FF4806000E040206C4908600120FFF705
:10442000FFFEE4B2002C02D04FF4006000E08020D8
:1044300069490968084068490860002800D00125DA
:10444000E4B2002C02D05FF0806001E05FF48000F5
:104450005E4908601420FFF7E3FE2800C0B2F2BDF9
:104460002DE9F84304000D0016001F005FF000095D
:1044700000202870E4B2002C02D04FF4006000E06D
:104480008020524908605FF080080AE05FF48000F5
:104490004E4908600120FFF7C3FE5FFA88F85FEA23
:1044A00058085FFA88F8B8F1010F2DD3E4B2002C58
:1044B00002D04FF4806000E04020444908600120B1
:1044C000FFF7AEFE3900C9B22000C0B200F05CF8C0
:1044D00081460320FFF7A4FEE4B2002C02D04FF483
:1044E000006000E080203C49096808403A490860C3
:1044F000002803D0287858EA00002870E4B2002C85
:10450000C4D05FF08060C3E7F6B2002E0AD1E4B2F7
:10451000002C02D05FF0006001E05FF400002B4946
:10452000086008E0E4B2002C02D04FF4006000E024
:104530008020264908600120FFF772FEE4B2002CBB
:1045400002D04FF4806000E0402020490860052040
:10455000FFF766FEE4B2002C02D05FF0806001E05D
:104560005FF4800019490860E4B2002C02D04FF4D7
:10457000006000E08020154908601420FFF750FE1D
:104580004846C0B2BDE8F28370B504000D000026B5
:1045900003E04FF47A70FFF743FEE4B2002C02D040
:1045A0004FF4806000E040200B49096808400A4948
:1045B0000860002806D12800451EC0B20028E8D1B6
:1045C000042001E03000C0B270BD0000100C0140BA
:1045D000040C0140000C0140080C01407047FEE74C
:1045E000FEE7FEE7FEE77047704770477047704789
:1045F00080B5202003F0F2FC002808D0202003F032
:10460000EAFC202003F0FCFCBD480021C17001BD84
:1046100080B50121BB4801F0E9FE002867D00121E7
:10462000B84801F0FAFEB8480088012804D3B6481B
:104630000088401EB4490880B4480088012804D38B
:10464000B2480088401EB1490880B148008801285E
:1046500004D3AF480088401EAD490880AD48807A39
:10466000012804D3AB48807A401EAA498872AA4820
:10467000B0F90A00022804DBA7484089401EA64979
:104680004881A648B0F86000012806D3A348B0F8D6
:104690006000401EA149A1F860009E4890F82200E9
:1046A000012806D39B4890F82200401E994981F8C2
:1046B00022009948B0F92200022804DB9648408C79
:1046C000401E954948848E48408C02280FD38C4860
:1046D000408C401E8A4948848948408C012806D174
:1046E00002218F4802F008F885480021418401BD6D
:1046F000704738B5874C25682888000703D5A888F7
:10470000C005C00D4BE040F22551280001F045F9ED
:10471000002815D040F22551280001F070F92089B9
:104720006168AA8842542089401C20810A20A07216
:1047300020894FF40071884231D3002020812EE07F
:1047400040F22771280001F028F9002827D0E068FE
:10475000002803D0608AE168405CA880608A401C21
:104760006082608A218A884219D3002240F2277130
:10477000280001F0E9F8207D012805D36648664944
:10478000B1F90810418102E0634800214181002015
:10479000208200206082002060750020E06031BD32
:1047A00038B5604C25682888000703D5A888C0055F
:1047B000C00D49E040F22551280001F0EEF8002834
:1047C00013D040F22551280001F019F920896168C1
:1047D000AA8842542089401C20810A20A072208986
:1047E000642831D3002020812EE040F22771280078
:1047F00001F0D3F8002827D0E068002803D0608AB1
:10480000E168405CA880608A401C6082608A218ADE
:10481000884219D3002240F22771280001F094F851
:10482000207D012805D33C483B49B1F92010418443
:1048300002E039480021418400202082002060826B
:10484000002060750020E06031BD70477047704700
:1048500080B5012003F034FC00280BD0012003F0C8
:1048600041FC03F01EFC03F0F8FB25498861244855
:104870000121017701BD80B55FF4803003F0AEFB0C
:10488000002814D05FF4803003F0A5FB5FF4803083
:1048900003F0B6FB2448816989B2082004F0CAFA03
:1048A00021488069010C89B20C2004F0C3FA01BDD3
:1048B00080B5022001F0AAFB002820D0022001F0E0
:1048C000B6FB1A48008880B2FA2818D200210EE000
:1048D00080B2C9B24FF4FA72144B02FB013212EBF0
:1048E0004002C9B2124B33F811305380491CC9B28F
:1048F0000229EDD30D480088401C0C49088001BDF9
:1049000078140020002C014068180020F8080020CE
:10491000FA0800204C150020D00E00200C140020B6
:104920000008014064150020CC130020D40A0020A8
:10493000D00A002030B4C0B20624B34D04FB0054AA
:104940006170C0B20621B04C01FB00414A80C0B288
:104950000621AD4A01FB0020838030BC704780B542
:10496000AC49C98C80B2814265D0AB494882A94923
:10497000C8840F21084212D1002300220021002008
:10498000FFF7D8FF0023002200210120FFF7D2FF0C
:104990000023002200210220FFF7CCFF50E080B26C
:1049A00010F00F01012912D10023642204210020FC
:1049B000FFF7C0FF0023002200210120FFF7BAFF0C
:1049C0000023002200210220FFF7B4FF38E080B26C
:1049D00010F00F01022912D1002300220021002033
:1049E000FFF7A8FF0023642204210120FFF7A2FFA4
:1049F0000023002200210220FFF79CFF20E080B26C
:104A000010F00F00032812D1002300220021002003
:104A1000FFF790FF0023002200210120FFF78AFF0B
:104A20000023642204210220FFF784FF08E07A4873
:104A30000521418204E00F21084201D176494882D4
:104A400001BD38B500247448807C10F00F000128A7
:104A500050DB6E480068401C6C4908606C48006878
:104A6000401C6B490860694800686C49884212D153
:104A7000674800210160654800210160664880693F
:104A800010F5B460644988616548634989690166C5
:104A900054F001042EE05E4800683C282AD15C48AE
:104AA000002101605C488069401C5B4988615C486A
:104AB0005949896901665A48006B57498969401A02
:104AC00004F066FB574903F095FB05005448006B62
:104AD00004F05EFB0100280003F0ACF904F054F987
:104AE0000022514B03F012FB03F00AFE04F0E4F93C
:104AF00049498882E4B2012C08D174214B4803F063
:104B00008DFE74224949464803F0B2FE31BD10B50E
:104B10000400E4B206203C4900FB0410407804285D
:104B200022D1E4B20620384900FB041000780028A6
:104B30003CD1E4B20620344900FB04104088002830
:104B400034D1E4B22F4810EBC4008188E4B22D4880
:104B500050F8340001F0D0FDE4B206202A4900FBF1
:104B600004100421017021E0E4B20620264900FB74
:104B700004100078042819D1E4B20620224900FB71
:104B800004108088002811D1E4B21E4810EBC40044
:104B90008188E4B21B4850F8340001F0B0FDE4B263
:104BA0000620194900FB041000210170E4B2062020
:104BB000154900FB0410408801280CD3E4B20620FC
:104BC000114900FB04104088401EE4B206210E4A41
:104BD00001FB04214880E4B206200B4900FB0410CD
:104BE000808801280CD3E4B20620074900FB04109A
:104BF0008088401EE4B20621034A01FB042188801C
:104C000010BD0000E4910008B4140020C814002076
:104C1000CC14002078140020CC1300208051010017
:104C2000581300200000C8420000E03F00F80108CF
:104C300080B50020FFF76BFF0120FFF768FF02201F
:104C4000FFF765FF01BD000080B502F0D9F900F063
:104C500067F800F08CF800F0D7F800F045F901F0A3
:104C6000C1FD01F00FFA0020FFF7DCF802F074FA42
:104C700000F0DCFA04F038F802F01AFBFEF73CFC16
:104C800000F062F94420FEF787FE02F02DF802F0F2
:104C9000F7FCFBF74DFAFCF7EAFBFCF787FFA448AB
:104CA0000088002816D104F047F8FEF75DFEFFF7F4
:104CB000BFFF01F096FA02F070F800F0A9FAFCF7D5
:104CC00003F9FCF753FC02F06BFBFCF70DFF98486F
:104CD0000A21018097480088002811D1FFF745F884
:104CE00002F00FFDFCF7DEFBFCF7B7FA01F00BFF5B
:104CF000FFF7A7FEFCF72CF98E484FF47A7101807C
:104D00000A21002000F03DFB2021012000F09FFB44
:104D100000210020884AD268904704F0ABFABEE731
:104D200080B501211D2001F02EF801214FF4007003
:104D300001F029F801214FF4006001F024F801216D
:104D4000012001F030F80121012001F00CF80121CF
:104D50004FF4804001F017F801215FF4003001F0BA
:104D600022F801215FF0805001F01DF801BD80B5EF
:104D70004FF40070ADF8000018208DF803000320F8
:104D80008DF8020000A96D4801F046FC4FF48060E8
:104D9000ADF8000004208DF8030000A9674801F079
:104DA0003BFC0420ADF8000018208DF80300032020
:104DB0008DF8020000A9614801F02EFC0820ADF832
:104DC000000004208DF8030000A95C4801F024FCD9
:104DD0004FF4E040ADF8000003208DF802001020F1
:104DE0008DF8030000A9564801F016FC0120ADF82B
:104DF000000002208DF8020000208DF8030000A9B9
:104E00004E4801F009FC01BD80B500215FF0006053
:104E100003F0F1FC0B208DF8000000208DF801005C
:104E200001208DF8020001208DF8030000A803F096
:104E3000AFFC19208DF8000000208DF80100022041
:104E40008DF8020001208DF8030000A803F0A0FCFB
:104E500025208DF8000000208DF8010003208DF83A
:104E6000020001208DF8030000A803F091FC262029
:104E70008DF8000000208DF8010004208DF802005C
:104E800001208DF8030000A803F082FC03208DF8B8
:104E9000000000208DF8010006208DF8020001209E
:104EA0008DF8030000A803F073FC01208DF80000CA
:104EB00001208DF8010000208DF8020001208DF8FE
:104EC000030000A803F064FC17208DF80000002008
:104ED0008DF8010005208DF8020001208DF80300F7
:104EE00000A803F055FC01BDE0B540F2E730ADF895
:104EF00000004720ADF804000020ADF806000020B7
:104F0000ADF8020000208DF8080000A90D4801F05E
:104F1000AFF901210B4801F05CFA01220121094897
:104F200001F04BFA0121074801F03AFA07BD0000F1
:104F3000F8080020FA080020D00E002000080140E8
:104F4000000C0140002C014010B582B0002400206C
:104F500004001FE0E4B2AC4810EBC4008088ADF858
:104F6000000003208DF8020010208DF8030000A936
:104F7000E4B2A54850F8340001F04EFBE4B2A24878
:104F800010EBC4008188E4B29F4850F8340001F06F
:104F9000B6FB641CE4B2012CDCD301234FF4FA729B
:104FA0004FF4FA71002000F001F813BD30B4C0B224
:104FB0000C24964D04FB005401256580C0B20C24DE
:104FC000924D04FB00540025A58089B20A2491FB70
:104FD000F4F1C0B20C248D4D04FB0054E18092B278
:104FE0000A2192FBF1F1C0B20C22884C02FB004274
:104FF0001181C0B20C21854A01FB0020837230BCB4
:10500000704710B50400E4B27F4810EBC4008188FB
:10501000E4B27D4850F8340001F071FBE4B20C209A
:105020007A4900FB041000210170E4B20C2077499A
:1050300000FB041000214180E4B20C20734900FB06
:10504000041000218180E4B20C20704900FB0410A0
:105050000021C180E4B20C206C4900FB0410002147
:105060000181E4B20C20694900FB04100021817227
:1050700010BD10B50400E4B20C20644A00FB04200B
:10508000807A0128C0F0BF80E4B20C205F4A00FBA8
:1050900004200078002836D1E4B20C205B4A00FBE3
:1050A00004208088002840F08480C9B200290BD1F8
:1050B000E4B2554810EBC4008188E4B2524850F87D
:1050C000340001F01CFB0AE0E4B24F4810EBC400CE
:1050D0008188E4B24C4850F8340001F00DFBE4B292
:1050E0000C204A4900FB0410E4B20C21474A01FBA2
:1050F0000421C9884180E4B20C20444900FB04101B
:105100000121017055E0E4B20C20404A00FB04206C
:10511000408800284DD1C9B200290BD1E4B23A48E9
:1051200010EBC4008188E4B2374850F8340001F035
:10513000E3FA0AE0E4B2344810EBC4008188E4B238
:10514000314850F8340001F0DAFAE4B20C202F496B
:1051500000FB0410E4B20C212C4A01FB0421098954
:105160008180E4B20C20294900FB04100021017069
:10517000E4B20C20254900FB0410807AFF2818D2E5
:10518000E4B20C20214900FB0410807A401EE4B2F6
:105190000C211E4A01FB04218872E4B20C201B4939
:1051A00000FB0410807A002803D12000C0B2FFF772
:1051B00028FFE4B20C20154900FB041040880128A8
:1051C0000CD3E4B20C20114900FB04104088401EAF
:1051D000E4B20C210D4A01FB04214880E4B20C200A
:1051E0000A4900FB0410808801280CD3E4B20C208B
:1051F000064900FB04108088401EE4B20C21034ADB
:1052000001FB0421888010BDD0920008C40E00204C
:1052100010B5002405E001212000C0B2FFF729FFEE
:10522000641CE4B2012CF6D310BD0000AF48B049B5
:105230000160AE4800214171AC48AE49C160AB4845
:10524000AD490161A94800214161A848AB4981618C
:10525000A64800214177A54800214162A348A849FA
:105260008162A248A749C16200201CE0C0B2182197
:105270009E4A01FB002100220A71C0B218219B4AFC
:1052800001FB00210022CA80C0B21821974A01FB0D
:10529000002100220A81C0B21821944A01FB00219A
:1052A00000224A81401CC0B20228DFD38F4841F25D
:1052B00088314184704770B5049CC0B218258B4E6C
:1052C00005FB00652D686D7D002D3DD1C0B2182510
:1052D000864E05FB00652D68E960C0B21825834E37
:1052E00005FB00652D682A82C0B218227F4D02FBA3
:1052F0000052126800255582C0B218227B4D02FB75
:10530000005212681375C0B21822784B02FB0032AB
:10531000126801235375C0B21822744B02FB00328D
:105320001481C0B21822714B02FB0032097811714E
:10533000012240F22771C0B218236C4C03FB0040DD
:105340000068006800F000FB70BD002203E00378F5
:105350009A18401C491E89B20129F8D2100080B267
:10536000704710B40022002303E0DBB21C5CA218DB
:105370005B1CDBB2C9B28B42F7D3100080B210BC09
:105380007047F8B50400E4B21820584A00FB042521
:105390002E68B07A012801D3002057E0E8883289CE
:1053A00080B292B2904201D100204FE080B292B21E
:1053B000904201D2121A02E002F20022121A92B2B4
:1053C00089B28A4201D2002040E0716800230BE0DC
:1053D00080B29BB21F18B7F500779BB2DFF828C1E7
:1053E0007F5C03F80C705B1C9BB292B293420AD2B2
:1053F00080B29BB21F184FF4007C6745E8DA80B298
:105400009BB21F18E9E792B23F48101810F8010C40
:1054100092B23D49511811F8021C11EB0027911E60
:1054200089B23948FFF791FFBFB2B84207D1286966
:10543000002804D02100C9B233482A6990470020CF
:1054400068810020E880002030810120F2BD2DE934
:10545000F0410400E4B21820244A00FB04252E6821
:10546000B07A012801D300203EE0B5F90A000128F6
:105470000ED141F2883068810020308168690028AF
:1054800004D02100C9B200206A69904700202BE0B7
:1054900030890200D2B292B289B28A4221D17768B1
:1054A000C0B2C11911F8021CC0B2C21912F8012C05
:1054B00012EB0128811EC9B23800FFF752FF1FFA14
:1054C00088F840450BD1286900280AD041F288307D
:1054D00068812100C9B238002A69904701E00020A4
:1054E0006881002030810120BDE8F081D00E0020CD
:1054F0004C150020232D000887300008641500207B
:1055000059840008B7840008000F0020E0B54FF46C
:105510006070ADF8000003208DF8020010208DF8B7
:10552000030000A9994801F077F84020ADF8000089
:1055300003208DF8020010208DF8030000A9934885
:1055400001F06AF82020ADF8000003208DF8020079
:1055500004208DF8030000A98C4801F05DF80521B6
:10556000012001F010F92020019000208DF80800A2
:105570000C208DF8090001208DF80A0001A802F026
:10558000D7FC202002F021FD202002F024FD07BDE1
:105590007E49096831F070617C4A1160C0B2002810
:1055A00006D07A48006850F080607849086005E0CD
:1055B0007648006850F0407074490860704770B5D4
:1055C00004000D001600EDB2012D4DD30020FFF7B1
:1055D000DFFF6F485FF0007101606D48802101605E
:1055E0006B484FF4807101600120FEF719FEF6B29E
:1055F000012E1ED10120691E10FA01F512E05FF4A0
:1056000080006349086062485FF400010160032084
:10561000FEF706FE5E48802101600320FEF700FED3
:10562000ADB26D08ADB2012D1ED32C42E7D04020A3
:10563000E7E7012511E05FF4800055490860544810
:105640005FF4000101600320FEF7EAFD504880216D
:1056500001600320FEF7E4FD6D00ADB2102D03D212
:105660002C42E8D04020E8E770BD38B50024012086
:10567000FFF78EFF46485FF00071016044488021CB
:10568000016043484FF4807101600120FEF7C8FDBE
:10569000002516E0E4B264083D485FF080710160C7
:1056A0000520FEF7BDFD3A484FF4807101600520EA
:1056B000FEF7B6FD37480068400601D554F00804EF
:1056C0006D1CEDB2042DE5D32000C0B232BD70B523
:1056D00004000D001600012203210620FFF76FFFD2
:1056E00001220621EDB2280080B2FFF768FF0025F5
:1056F00004E0FFF7BAFF2070641C6D1CEDB2F6B237
:10570000B542F6D322484FF40071016070BD70B508
:1057100004000D001600012203210520FFF74FFFB2
:1057200001220621EDB2280080B2FFF748FF0025D4
:1057300007E000220421207880B2FFF740FF641CBC
:105740006D1CEDB2F6B2B542F3D311484FF40071BF
:10575000016070BD70B504000D000122032104201A
:10576000FFF72DFF002606E0012209212088FFF720
:1057700026FFA41C761CF6B2EDB2AE42F4D3044868
:105780004FF40071016070BD00000000000C01408A
:10579000100C0140080C014080B5524988420AD1E2
:1057A00001214FF4804000F00EFB00214FF48040B7
:1057B00000F009FB36E04C4988420AD101215FF430
:1057C000003000F010FB00215FF4003000F00BFB14
:1057D00028E0464988420AD101215FF4802000F088
:1057E00002FB00215FF4802000F0FDFA1AE040493E
:1057F00088420AD101215FF4002000F0F4FA002170
:105800005FF4002000F0EFFA0CE03A49884209D139
:1058100001215FF4801000F0E6FA00215FF48010AF
:1058200000F0E1FA01BDF0B585B004000D000020E4
:105830000021002200230026AF89002F2600208AA5
:105840004CF6FF710840E98808432082A0894EF693
:10585000F3110840A9882A8911436A891143084332
:10586000A081A08A4FF6FF410840A9890843A08281
:1058700000A800F018FA1B48864201D1039900E005
:105880000299A089000407D5192000FB01F02968BE
:105890004900B0FBF1F206E0192000FB01F0296895
:1058A0008900B0FBF1F26420B2FBF0F000010109C5
:1058B000642303FB1123A189090408D5D9003231DF
:1058C0006422B1FBF2F111F00701084307E019016E
:1058D00032316422B1FBF2F111F00F010843208153
:1058E00005B0F0BD003801400044004000480040D1
:1058F000004C00400050004010B40022038A1A00FF
:105900004FF2FF031A400B884C8823438C882343B3
:10591000C98819430A43028210BC704700210180E4
:1059200000214180002181800021C1807047C9B2DF
:10593000002904D0818951F40051818103E08189DB
:1059400021F4005181817047F0B400230024002528
:10595000002640F66A1789B2B94206000800C0B2B4
:105960004309DBB289B211F01F04012010FA04F5DB
:10597000012B01D10C3604E0022B01D1103600E0DE
:105980001436D2B2002A03D030682843306002E0D7
:105990003068A8433060F0BC704770B40023002426
:1059A0000025002240F66A1689B2B1420A00D2B23E
:1059B0005509EDB289B211F01F04012212FA04F464
:1059C000012D02D18289144006E0022D02D1028A03
:1059D000144001E0828A144089B20B0A9BB2012173
:1059E00011FA03F300880340002C03D0002B01D0F0
:1059F000012200E000221000C0B270BC704710B459
:105A00000022002340F66A1489B2A14289B20A0A30
:105A1000012111FA02F39BB2D943018010BC7047F7
:105A2000F0B540F2FF7581EA030C0CF0004C15EA6A
:105A300011541DBF15EA1357AC42AF42E5E0BC411B
:105A4000C1F31301C3F31303801A994143F4801384
:105A500004D2641E4000494180185941C90241EAFC
:105A60005051B1FBF3F603FB1611A2FB0675D7EB01
:105A7000C020A94102D2761E80185941C90241EACC
:105A80005051B1FBF3FE03FB1E11A2FB0E75D7EBC9
:105A9000C020A94103D2AEF1010E801859418902FC
:105AA00041EA9051760546EA8E2EB1FBF3F603FBF0
:105AB0001611A2FB0675D7EB8020A94102D2761EF3
:105AC00080185941C90241EA50514EEA060EB1FB15
:105AD000F3F603FB1611A2FB0675D7EBC020A94114
