:020000040800F2
:10000000000800203D6A000835170008371700086F
:10001000391700083B1700083D17000800000000D2
:100020000000000000000000000000003F17000872
:10003000411700080000000043170008451700089A
:10004000E96A0008271B0008F16A0008FF1A000887
:10005000F96A0008FD6A0008016B0008056B0008DA
:10006000096B000847170008116B0008156B0008A2
:10007000196B00081D6B0008216B0008256B000838
:10008000296B00082D6B0008316B0008356B0008E8
:10009000396B00083D6B0008416B0008456B000898
:1000A000496B000849170008516B0008556B0008A0
:1000B0009D1800085D6B0008CF180008656B0008EC
:1000C000696B00086D6B0008716B0008756B0008A8
:1000D000796B0008A11900084F1A0008F91A0008E6
:1000E000896B00088D6B0008916B0008956B000808
:1000F000996B00089D6B0008A16B0008A56B0008B8
:10010000A96B0008AD6B0008B16B0008B56B000867
:10011000FB1A0008FD1A0008C16B0008C56B000837
:10012000C96B0008CD6B0008D16B0008D56B0008C7
:100130000021DFF8042C92F82420002A05D1DFF8F2
:10014000F81B91F83A1000294FD0DFF8F01B09781E
:1001500005291DD2DFF8E81B0978DFF8E82B22F823
:100160001100DFF8E41B09884018DFF8DC1B088069
:10017000DFF8CC0B0078401CDFF8C41B0870DFF8F8
:10018000BC0B0078401CDFF8B41B087000213EE077
:10019000DFF8AC1B0978052903D1DFF8A41B002286
:1001A0000A70DFF8A41B0988DFF8942B1278DFF8B7
:1001B000943B33F81220891A4118DFF88C2B1180F8
:1001C000DFF87C1B0978DFF87C2B22F81100DFF8C0
:1001D000700B0078401CDFF8681B0870DFF8580BC4
:1001E000002180F83A10012111E0DFF8500B00786F
:1001F00001280BD3DFF8480B00210170DFF8480B12
:1002000000210180DFF8340B00210170002108007B
:10021000C0B2704770B40021C0B2DFF8302B12EBCF
:100220008002928EC0B2DFF8243B13EB8003DB8E9A
:10023000DFF81C4BA4686425DFF8146B766805FBB7
:10024000046492B29BB29A4216D2A4B29BB29C4270
:1002500001D3002126E0A4B292B2944209D3C0B2E5
:10026000DFF8E81A11EB400090F8500010F02F0171
:1002700018E04FF6FF7115E0A4B292B2944209D390
:10028000C0B2DFF8C81A11EB400090F8500010F02F
:100290002F0107E0A4B29BB29C4201D3002101E0F0
:1002A0004FF6FF71080080B270BC7047F8B50025AA
:1002B000002611E0F6B2DFF8940A10EB8600808E7B
:1002C000F6B2DFF8881A11EB8601C98E884202D097
:1002D0000120B0400443761CF6B2072EEAD3DFF8C3
:1002E000700A8769072600E006273000461EC0B264
:1002F00000280ED0E4B254FA07F0C00711D5380038
:10030000C0B2FFF787FF4FF6FF7180B2884203D07B
:1003100005002800C0B2F2BDFFB2002FE4D07F1E5E
:10032000E3E7FFB2002F01D10627DEE77F1EDCE7FF
:1003300038B5DFF8200A807C10F03000DFF8141A9E
:10034000897C11F01004C0B21028C0F00481DFF8DD
:10035000040A807C800643D5DFF8F809808880B2E3
:10036000FFF7E6FE00283BD0DFF8DC090088052116
:1003700090FBF1F0DFF8DC19897C0F22114206D0E6
:10038000DFF8C819C989C91E80B2814206DBE4B210
:1003900054F0210080B203F04AF821E080B2DFF887
:1003A000AC19C989C91C88420DDBDFF8A019498A3C
:1003B000C91E80B2814206DBE4B254F0220080B252
:1003C00003F035F80CE080B2DFF88019498AC91CC7
:1003D000884205DBE4B254F0230080B203F027F832
:1003E000DFF87009807CC00640F1B580DFF848096D
:1003F00090F82F00002826D1DFF83C09808D0128D5
:1004000040F0A980DFF8300900218185DFF8440938
:10041000807C10F00F00012807DB002003F007F8B4
:100420000121002000F09CF995E0DFF80C09008D17
:1004300080B2012803D380B202F0F9FF8BE00120E3
:1004400002F0F5FF87E0DFF808098469E4B2DFF81D
:10045000FC0810EB8400808EE4B2DFF8F01811EB9A
:100460008401C98E884250D0002503E0102002F09C
:10047000DEFF6D1CEDB2022D47D2EDB2E4B2DFF823
:10048000CC0810EB840010EB4500808E42F2107116
:1004900090FBF1F201FB1200642190FBF1F0EDB250
:1004A000E4B2DFF8A81811EB840111EB4501898E45
:1004B000642291FBF2F302FB1311C0B2DFF8902823
:1004C00092689042D5D1C9B2DFF884084068814271
:1004D000CFD1E4B2DFF8740810EB440090F850007C
:1004E00010F02F00DFF86C18897C890604D5DFF83E
:1004F0006408807C10F02F00EDB2002DB6D150F0D2
:10050000100080B202F093FFB3E7DFF84C080088D8
:10051000022820D3DFF840080088401EDFF8381892
:100520000880DFF834080088012814D1DFF8280893
:1005300000210180FFF7BAFE80B2202806D1DFF843
:100540001408807C10F00F0050F0200050F01000D4
:1005500080B202F06CFF31BD00B583B000A805F099
:1005600081FA5FF48030009000208DF804000820AC
:100570008DF8050001208DF8060000A805F02EFA80
:10058000E02006F08DF9012006F086F907BDDFF8BE
:10059000A807408C022806D3DFF89C07408C401E39
:1005A000DFF894174884DFF8B407007C022806D3EC
:1005B000DFF8A807007C401EDFF8A0170874DFF8FA
:1005C000A0078088012806D3DFF894078088401EA2
:1005D000DFF88C178880DFF8600790F82E0001287C
:1005E00009D3DFF8540790F82E00401EDFF84817B3
:1005F00081F82E000BE0DFF84007808D022806D33B
:10060000DFF83407808D401EDFF82C178885DFF86F
:1006100028074089012806D3DFF81C074089401EBF
:10062000DFF814174881DFF81007C088012806D3C7
:10063000DFF80407C088401EDFF8FC16C880DFF82A
:100640001C07807B022806D3DFF81007807B401E42
:10065000DFF808178873DFF8E006007B012806D36F
:10066000DFF8D406007B401EDFF8CC160873DFF8F5
:10067000E8060088022806D3DFF8DC060088401E62
:10068000DFF8D416088070471CB500A8DFF8D41630
:10069000072205F0F4FE0024DFF89C06007A00280B
:1006A00057D0DFF8B006408A012852D3DFF8880619
:1006B000007B012818D3DFF89C06808A642807D1C4
:1006C000DFF89006828A312100A801F0DDFF38E0D2
:1006D00046208DF80000DFF87C06828A21210DF18A
:1006E000010001F0D1FF2CE0DFF84C0690F82E005D
:1006F00001281FD3DFF84006808D4FF46161B0FB05
:10070000F1F130318DF8001030218DF802104FF4E6
:100710006161B0FBF1F201FB1200002808D00A2150
:1007200048434FF46161B0FBF1F030308DF80200C6
:10073000012406E0DFF81C068288302100A801F0C1
:10074000A3FFE4B223009BB20722012100A802F01C
:10075000C9FC13BD80B502F045FC01F03DFC01BDB4
:1007600010B50C00C0B2002803D1DFF8CC15002270
:100770004A81DFF8C415097AC0B2814209D0DFF896
:10078000B8150872002307220100C9B276A002F052
:10079000A9FCE4B2002C02D0FF2001F0A5FC10BDA2
:1007A00080B5FFF771FF02F01CFD01F011FE01BDE5
:1007B00000B583B0DFF89C05408A012814D3DFF828
:1007C0007805408900281DD1DFF86C0590F83200CB
:1007D000002804D101210020FFF7C2FF12E0002110
:1007E0000120FFF7BDFF0DE0DFF84C054089002830
:1007F00008D1DFF84405007A002803D0DFF8380577
:1008000000210172DFF83005007A002863D0DFF89C
:1008100058050078DFF83C15498A80B2884263D0D9
:10082000DFF83005408A01284ED3DFF82805408ADA
:10083000102810D1DFF8000590F82F0000280AD109
:1008400001200190002000900023002201210220BD
:1008500001F0D6FB38E00120019000200090002339
:1008600000220121002001F0CBFBDFF8E804807CAE
:10087000C00609D50020019000200090002300222E
:100880000121022001F0BCFBDFF8C804807C800657
:100890000AD50020019000200090002300220121B1
:1008A000012001F0ADFB0FE0DFF8A804807C10F020
:1008B0000300801C002101910021009100230022EF
:1008C0000121C0B201F09CFBDFF88804408ADFF808
:1008D0009814087008E0DFF890040078FF2803D02F
:1008E000DFF88404FF21017007BD00B583B0C0B2FA
:1008F000012818D1012003F0FFF9DFF83C040121A1
:1009000080F8401000200190FF2000904FF4FA730F
:100910004FF4FA720221002001F072FB092100203D
:1009200001F0D7F91FE0002003F0E6F9DFF8080432
:10093000002180F84010DFF81C04408A01280FD302
:10094000DFF81004408A10280AD000200190FF2010
:100950000090002300220121002001F051FB02E061
:10096000002001F0C1FB07BD000000007CB50400C1
:10097000FF2600200025E4B2002C3AD1DFF8D40392
:10098000408A002801D100200DE0DFF8AC0390F888
:100990002F00002806D1DFF8BC03408A102801D1BF
:1009A000002000E00120C0B2002819D1DFF8880340
:1009B000008DC0B200280AD0C0B210F0300130293A
:1009C00000D13020C0B280B202F031FD02E001203F
:1009D00002F02DFD0026DFF860030121017281E0A5
:1009E000002002F024FD01210020FFF7B9FE0126BE
:1009F00078E0DFF86003408A012859D3DFF8540318
:100A0000408A102854D0E4B2202C0CD10226DFF802
:100A10004403807C10F00F00C0B250F0200080B280
:100A200002F005FD5EE0E4B2102C1BD10326DFF8D6
:100A30003C0390F85400002805D10125BE48002150
:100A400080F82F104EE0C348807C10F02F00C0B219
:100A500050F0100080B202F0EAFCB748012180F8A3
:100A60002F103FE0E4B2012C04D10426012002F053
:100A7000DEFC37E0E4B2022C04D10526022002F0AD
:100A8000D6FC2FE0E4B2032C04D10626032002F0AA
:100A9000CEFC27E0AF48807C3021084222D10726D7
:100AA000AC48408A50F0800080B202F0C0FC19E0EF
:100AB000E4B2102C0BD1AD4890F85400002806D1B8
:100AC000032601259C48002180F82F100AE0002011
:100AD000019003200090C823C8220221002001F0C9
:100AE0008FFA0826F6B2FF2E04D03100C9B20020DA
:100AF00001F0EFF8EDB2002D47D08F4890F82E00AE
:100B0000012803D29348807CC0063AD48A48808D5D
:100B10004FF4E161884A928D121A90FBF1F001FBCB
:100B20000020854988858448808DB0F5E14F11D239
:100B30008148808D10F5E1607F4988857E480521D8
:100B400080F82E108348408A50F0100080B202F0E6
:100B50006EFC1AE07848002181857748002180F8F2
:100B60002E107C48408A102803D101210020FFF775
:100B7000F7FD7848408A4FF6EF71084002F057FCC5
:100B800003E06D48052180F82E10E4B2102C0AD045
:100B90007048408A102806D0674800218185664841
:100BA000002180F82E1073BD80B510F02F0180B2A7
:100BB000C20608D5684805220280C9B251F010006B
:100BC0006449488205E0644900220A8080B202F04C
:100BD0002EFC01BD80B56148007C01280DD10020AC
:100BE00003F08AF8002001F07FFA0821002001F0CC
:100BF00070F85148002180F8401003F097F801BDCB
:100C000080B5FF204C4991F84010002976D1534916
:100C1000097B574A1288012A03D2C9B20129C0F0C0
:100C20008980534A12884FF49C739A4203D1012061
:100C3000FFF75BFE5BE04E4A128840F201139A42D6
:100C400008D14A48012180F86B100821002001F0EA
:100C500040F84CE0464A1288B2F5817F07D1364809
:100C6000032101730821002001F033F83FE0404ADE
:100C70001288012A02D0C9B2012901D1002030E036
:100C80003B4A1288022A02D0C9B2022901D120208F
:100C900027E0374A1288042A02D0C9B2032901D1B9
:100CA00010201EE0324A1288202A02D0C9B204293C
:100CB00001D1012015E02E4A1288102A02D0C9B2B3
:100CC000052901D102200CE0294A1288082A02D005
:100CD000C9B2062901D1032003E0C9B2072900D116
:100CE0008020C0B2FF2802D0C0B2FFF73FFE2048EC
:100CF000002101801948002101731BE01C48008875
:100D00004FF49C71884203D01448807B01280FD196
:100D1000174800884FF49C71884203D108210020B5
:100D200000F0D7FF0020FFF7E0FD1148002101800F
:100D3000FFF750FF01BD00003C100020721400209E
:100D4000711400203811002066140020000F0020CC
:100D5000D40E0020900F00206814002014110020F1
:100D600080100020906A000873140020D00F00202B
:100D70006A14002070B400230FE05C5C44405C54B3
:100D80005C5C4FF48075B3FBF5F606FB1536DFF8B7
:100D90007459755D6C405C545B1C9342EDD370BC20
:100DA0007047F8B504000D0016000027EDB2002DC5
:100DB00001D100203FE12570002007E080B2011939
:100DC00080B2DFF84429825C4A70401C80B2082857
:100DD000F4D3002005F049FE05F0EEFC05F02CF9F7
:100DE0004FF4807190FBF1F202FB1102A272EDB29E
:100DF0002800012815D0022827D0042878D00628FA
:100E000000F00981082820D00A2800F0BD800C28B5
:100E100000F0F6800D2800F0F380F02800F0FB8051
:100E200007E100206072DFF8E4080088E072DFF874
:100E3000DC08008880B2000A2073022214F10B0142
:100E4000A07AFFF797FF0D27F3E0EDB2022D02D154
:100E50000020607204E0DFF8B80890F86400607267
:100E6000DFF8A8183C25002005E080B202190B78B5
:100E7000D372491C401C80B20828F6D3DFF88C08D6
:100E8000B0F90800642190FBF1F1E17489B2080A1D
:100E90002075DFF878084089642190FBF1F16175D5
:100EA00089B2080AA075DFF86C18002005E080B24E
:100EB00002190B78D375491C401C80B20A28F6D35E
:100EC000DFF85418002006E080B202190B7882F88F
:100ED0002130491C401C80B22628F5D3ADB22A002F
:100EE00014F10B01A07AFFF745FF15F10B07A0E005
:100EF00000206072002020E080B2DFF80C1811EBB7
:100F00008001C98E80B214EB8002D17280B214EBE2
:100F1000800289B2090A117380B2DFF8EC1711EB75
:100F20008001898E80B214EB8002517380B214EB81
:100F3000800289B2090A9173401C80B20728DBD372
:100F4000002013E080B2DFF8C01711EB4001B1F8C8
:100F5000501080B214EB400282F8271080B214EBDC
:100F6000400289B2090A82F82810401C80B2072882
:100F7000E8D32A25ADB22A0014F10B01A07AFFF7BD
:100F8000F9FE15F10B0754E0DFF8840790F86400D0
:100F90006072DFF87417DFF8840700884118DFF803
:100FA0007C070088E072DFF87407008880B2000ACE
:100FB0002073DFF86C0700886073DFF8640700882F
:100FC00080B2000AA073002005E080B202190B78FD
:100FD000D373491C401CDFF84827128880B2904226
:100FE000F3D3DFF83C070088021D14F10B01A07A4F
:100FF000FFF7C0FEDFF82807008810F10F0718E0A0
:1010000000206072E672012214F10B01A07AFFF752
:10101000B1FE0C270DE0DFF8F80690F8640060726E
:10102000E672012214F10B01A07AFFF7A3FE0C2750
:10103000FFE7380080B2F2BD38B5040010001A0096
:101040005423237046236370A17089B20B0AE370A6
:10105000002323710023637189B2032907D0D2B220
:101060000100C9B214F10800FFF79BFE0500A5714D
:10107000ADB2280AE07115F1080189B2200002F032
:1010800042FBADB229190872ADB22919C0F307208D
:10109000487215F10A0080B232BD80B500200023ED
:1010A0000022DFF86C16B1F86010002940F0A5812D
:1010B000DFF85C160978042980F09F81DFF850166C
:1010C00091F8541000290BD0DFF8441691F86A10FB
:1010D000002905D1DFF8381691F86B10002957D098
:1010E000DFF82C0690F86B00002812D000230022B5
:1010F0001021DFF83006FFF79FFFDFF814160022FB
:1011000081F86B20DFF8081610F16402A1F8602066
:1011100066E1DFF8FC0590F86A00002812D0002391
:1011200000226621DFF8FC05FFF786FFDFF8E015F7
:10113000002281F86A20DFF8D81510F16402A1F8C6
:1011400060204DE1002300220821DFF8D805FFF7D9
:1011500073FFDFF8BC154FF4FA62A1F86020DFF8E6
:10116000B015B1F85610491CDFF8A425A2F85610A6
:10117000DFF89C15B1F8621051F00801DFF89025F6
:10118000A2F86210DFF88815002281F8542027E1C8
:10119000DFF87C15B1F862100129C0F0AE80DFF8ED
:1011A000700590F86200C0070AD506220123DFF817
:1011B0006005B0F8621021F00101A0F8621094E01F
:1011C000DFF84C0590F86200800709D50822DFF8A7
:1011D0004005B0F8621021F00201A0F8621084E02E
:1011E000DFF82C0590F86200400709D50A22DFF8E5
:1011F0002005B0F8621021F00401A0F8621074E03C
:10120000DFF80C0590F86200000709D50422DFF82A
:101210000005B0F8621021F00801A0F8621064E047
:10122000DFF8EC0490F86200C0060AD5062200231D
:10123000DFF8DC04B0F8621021F01001A0F86210B1
:1012400053E0DFF8CC0490F8620080060AD50F2244
:10125000DFF8BC04B0F8621021F02001A0F86210A1
:10126000012342E0DFF8A80490F8620040060AD5A6
:101270000C22DFF89C04B0F8621021F04001A0F8C5
:101280006210012331E0DFF8880490F86200000664
:101290000AD50C22DFF87804B0F8621021F0800142
:1012A000A0F86210002320E0DFF86404B0F86200C8
:1012B000C0050AD50D22DFF85804B0F8621021F4F9
:1012C0008071A0F8621001230FE0DFF84404B0F849
:1012D0006200400409D5F022DFF83404B0F862104F
:1012E00021F48041A0F862100123DBB2D2B20721C1
:1012F000DFF83004FFF7A0FE6CE0DFF81414B1F85B
:101300005A10002905D0DFF8081491F86810012957
:101310001AD1002302220721DFF80804FFF78CFE10
:10132000DFF8EC1391F86810012905D1DFF8E0131C
:10133000002281F868204DE0DFF8D413DFF8C823DD
:10134000D28DA1F85A2045E0DFF8C413B1F85C1043
:1013500000290FD1DFF8B813B1F8621051F008017D
:10136000DFF8AC23A2F86210DFF8A4130A22A1F878
:101370005C202FE0DFF89813B1F85810002917D13E
:10138000002301220721DFF89C03FFF755FEDFF859
:101390008013DFF87423928DA1F85820DFF87013C2
:1013A00091F86910491CDFF8682382F8691011E090
:1013B000DFF85C13B1F85E1000290BD10023002286
:1013C0000821DFF86003FFF737FEDFF844131E2221
:1013D000A1F85E20DFF8381310F16402A1F8602054
:1013E00080B2012809D3002100910023020092B2AB
:1013F000DFF83013002002F03CF9012002BD30B5C7
:1014000083B0040000202178542902D16078462856
:1014100001D0002074E1A51C2888062840F0268110
:10142000E079A17911EB0020B0F10B02257A92B29C
:1014300014F11301A07CFFF79DFCEDB2012D0BD040
:10144000052D2ED0072D00F09180092D00F09780FA
:101450000C2D00F0B18008E1E07C46281CD0207DF6
:10146000012819D0607D012816D0A07DAE49896879
:10147000884204D1E07DAC49496888420CD0207E86
:101480000190E07D0090A37D627D217DE07C10F5E0
:10149000FA6080B204F09EFC9D48002180F869103B
:1014A0002DE1E079A17951EA002292B2352A40F08B
:1014B000268100201EE080B214EB8001097D80B2FD
:1014C00014EB8002D27C52EA012180B28E4A12EBE8
:1014D0008002D18680B214EB8001897D80B214EB4A
:1014E0008002527D52EA012180B2874A12EB8002CB
:1014F0009186401C80B20728DDD3002011E080B225
:1015000014EB400191F8301080B214EB400292F8D5
:101510002F20114380B27C4A12EB4002A2F85010F7
:10152000401C80B20728EAD39021804804F016FEC0
:1015300090227E49744804F03BFE7448807CC006CB
:1015400003D57248408AFFF72FFB7148B0F862005C
:1015500050F001006E49A1F862006D48B0F86200D9
:1015600050F008006A49A1F86200C8E06848B0F885
:10157000620050F002006649A1F86200BFE0E07C22
:10158000217D10EB012065490880607DA17D10EB75
:10159000012063490880614800886149098808186A
:1015A000602880F2AC805A48B0F8620050F0040025
:1015B0005749A1F86200A2E0E07C80284CD2E07C90
:1015C00000281BD15148408A002805D00121002065
:1015D000FFF7C6F8002030E05548008D00280BD0FA
:1015E0005348B0F92800524991F8281011F0300101
:1015F000302922D1302020E001201EE0E07CE17C77
:1016000010291AD3E17CC9060AD54048807C10F025
:101610002F0050F010004649012281F82F200CE0E5
:10162000E17C890609D53948807C10F00F0050F024
:1016300020003F49012281F83A2000B2002802D45C
:1016400080B2FFF7B1FA3248B0F8620050F04000C3
:101650002F49A1F8620052E02D48B0F8620050F026
:1016600080002B49A1F8620049E048E0288808285A
:1016700002D02888662835D1E079A17911EB0022C3
:1016800092B25F2A22D1542214F11301A07CFFF7F9
:1016900071FB1F49002005E080B20219D27C0A705C
:1016A000491C401C80B25428F6D318481849497880
:1016B000018217480078032804D11548012180F8D9
:1016C000541003E01248002180F85410288866283E
:1016D00003D10F48012180F86A100D480021A0F8BD
:1016E00056100CE028880F2809D1E079A17911EB78
:1016F000002292B20C2A02D10D48E17C0171012036
:101700003EBD000010560008000F0020900F002082
:10171000D00F00209C0F0020A80F00205C14002098
:101720005E140020D40C0020D40E002000F8010824
:101730003C1000207047FEE7FEE7FEE7FEE770473B
:10174000704770477047704780B50121DFF810047B
:1017500001F08DFB002800F0A0800121DFF80004DB
:1017600001F09CFBDFF8FC030088012806D3DFF8BA
:10177000F4030088401EDFF8EC130880DFF8E8036C
:101780000088012806D3DFF8E0030088401EDFF858
:10179000D8130880DFF8D4030088012806D3DFF8C7
:1017A000CC030088401EDFF8C4130880DFF8C003B4
:1017B000807A012806D3DFF8B803807A401EDFF86C
:1017C000B0138872DFF8AC03B0F90A00022806DB18
:1017D000DFF8A0034089401EDFF898134881DFF846
:1017E0009803B0F86000012808D3DFF88C03B0F844
:1017F0006000401EDFF88013A1F86000DFF870037E
:1018000090F82200012808D3DFF8640390F8220042
:10181000401EDFF85C1381F82200DFF85803B0F9AE
:101820002200022806DBDFF84C03408C401EDFF864
:1018300044134884DFF84403C08C022812D3DFF835
:101840003C03C08C401EDFF83413C884DFF82C033F
:10185000C08C012806D10221C94803F0BBF9C74852
:101860000021C184C7484078012804D3C548407886
:10187000401EC4494870C4480089012804D3C248A6
:101880000089401EC0490881BF488088012804D3D0
:10189000BD488088401EBC49888001BD80B50121BB
:1018A0005FF0804001F0E3FA00280FD001215FF0E3
:1018B000804001F0F3FAB4488088012803D3002067
:1018C00000F0D5F902E0002000F074FA01BD38B54F
:1018D00000250221AD4801F0CAFA00285FD002219C
:1018E000AA4801F0DBFAA94801F0BDFA0400A748B4
:1018F00001F0BBFA050042F24960201A80B2952837
:1019000016D2A5F22D1080B2952811D29D484078AC
:10191000002809D19B48002181709A48002141602C
:1019200098480121017036E096480021017032E0AC
:101930009448007801282ED1A4F2E93040F2C11178
:1019400080B2884224D28F48406840008D49486068
:101950008C488078401C8B498870A4B2ADB2601B63
:10196000ADB2A84205DA8748406850F001008549C9
:1019700048608448807818280DD18248C821417079
:101980008048022101707F487E494968816002E0F9
:101990007C480021017000217C4801F04BFA31BDE8
:1019A00038B5734C25682888000703D5A888C0057A
:1019B000C00D4BE040F22551280002F042FB002808
:1019C00015D040F22551280002F06DFB2089616896
:1019D000AA8842542089401C20810A20A0722089B4
:1019E0004FF40071884231D3002020812EE040F274
:1019F0002771280002F025FB002827D0E068002886
:101A000003D0608AE168405CA880608A401C6082E4
:101A1000608A218A884219D3002240F22771280067
:101A200002F0E6FA207D012805D352485149B1F968
:101A30000810418102E04F480021418100202082AE
:101A400000206082002060750020E06031BD38B564
:101A50004F4C25682888000703D5A888C005C00D0D
:101A600049E040F22551280002F0EBFA002813D09B
:101A700040F22551280002F016FB20896168AA88EF
:101A800042542089401C20810A20A07220896428A9
:101A900031D3002020812EE040F22771280002F08F
:101AA000D0FA002827D0E068002803D0608AE168D7
:101AB000405CA880608A401C6082608A218A8842DB
:101AC00019D3002240F22771280002F091FA207DFC
:101AD000012805D327482749B1F92010418402E0A5
:101AE00024480021418400202082002060820020C0
:101AF00060750020E06031BD70477047704780B569
:101B0000012004F078FA00280CD0012004F085FAB6
:101B100004F06CFA04F053FA1849C861174801211F
:101B200080F8201001BD80B55FF4803003F0A6FF7F
:101B3000002814D05FF4803003F09DFF5FF4803004
:101B400003F0AEFF1348816989B2082004F0DCFE7F
:101B500010488069010C89B20C2004F0D5FE01BD4B
:101B6000002C014060140020B4080020B6080020BA
:101B700044110020A40A0020D00F00203C100020B7
:101B80000008014014110020980A002000080040BD
:101B90005C110020900F00201FB5002400200400DD
:101BA0002DE0E4B2DFF8FC0310EB04108088ADF800
:101BB000000003208DF8020010208DF8030000A91A
:101BC000E4B22001DFF8DC23805802F09DFFE4B28C
:101BD000DFF8D00310EB04108089ADF8000003207B
:101BE0008DF8020010208DF8030000A9E4B2DFF8A0
:101BF000B40310EB0410806802F086FF641CE4B2AA
:101C0000012CCED3DFF89C038188DFF898030068AD
:101C100002F0E3FFDFF88C038189DFF88803806836
:101C200002F0DBFF40F2F310ADF804004720ADF8FE
:101C300008000020ADF80A000020ADF806000020E2
:101C40008DF80C0001A95FF0804000F0D9FF012160
:101C50005FF0804001F0D0F8012201215FF0804068
:101C600001F0B5F80021002000F033F81FBD10B5D9
:101C70000400E4B20A20CC4900FB0410807800285C
:101C800013D0E4B2C74810EB04108189E4B2C54810
:101C900010EB0410806802F0A0FFE4B20A20C249F1
:101CA00000FB04100021817012E0E4B2BD4810EB8B
:101CB00004108189E4B2BB4810EB0410806802F084
:101CC00089FFE4B20A20B84900FB041001218170A9
:101CD00010BD38B50C000025C0B20A21B24A01FB84
:101CE000002101220A70C0B20A21AF4A01FB002183
:101CF00000228A70C0B20A21AB4A01FB00214C705D
:101D0000C0B20A21A84A01FB00210022CA70C0B259
:101D10000A21A54A01FB00210022CA71C0B20A2192
:101D2000A14A01FB002100228A71C0B20A219E4A09
:101D300001FB002150220A81E4B205219B4A01FBEC
:101D4000042109789A4A12EBC10131F8081CC0B28B
:101D50000A22954B02FB00329180C0B2914911EBEF
:101D600000118988C0B200018E4A805802F035FF08
:101D7000E4B205208D4900FB041040788D4931F80C
:101D8000100005008C48B0FBF5F004F0F9FD0022CE
:101D90008A4B03F0AFFD04F041FD451E290089B2D6
:101DA0005FF0804001F048F801215FF0804001F0D1
:101DB00001F831BD10B50400E4B27A4810EB04100C
:101DC0008189E4B2774810EB0410806802F005FFC7
:101DD000E4B20A20744900FB04100021817010BD98
:101DE00070B504000021E4B20A206F4A00FB042011
:101DF0000078002800F0D480E4B20A206A4900FB91
:101E000004104078C0B20521684A01FB00210D781A
:101E1000E4B20A21644A01FB04218988002965D1C2
:101E2000E4B20A21604A01FB0421C978491CE4B2EA
:101E30000A225D4B02FB0432D170E4B20A215A4AF5
:101E400001FB0421C978C9B2EDB2A9422BD2C9B2B3
:101E5000EDB2574A12EBC50212EB410232F8082CE0
:101E6000E4B20A23504E03FB04639A80C9B2C0B2A5
:101E700005224E4B02FB0030081840784D4931F8DE
:101E800010104D48B0FBF1F004F07AFD00224B4BEE
:101E900003F030FD04F0C2FC411E89B25FF08040C7
:101EA00000F0CAFF22E0E4B20A203F4900FB041020
:101EB00000210170E4B23B4810EB04108188E4B2C9
:101EC0002001384A805802F088FEE4B2354810EB11
:101ED00004108189E4B2334810EB0410806802F0EA
:101EE0007CFE00215FF0804000F064FFE4B20A2035
:101EF0002D4900FB04100089002851D1E4B20A20CA
:101F0000294900FB0410C079C0B2EDB2A84247D203
:101F1000E4B20A20244900FB04108079002819D17A
:101F2000E4B20A20204900FB041001218171E4B2CF
:101F30000A201D4900FB041028210181E4B2194840
:101F400010EB04108188E4B22001164A805802F098
:101F500041FE25E0E4B20A20134900FB04100021F1
:101F60008171E4B20A20104900FB04105021018164
:101F7000E4B20C4810EB04108188E4B22001094A55
:101F8000805802F02AFEE4B20A20074900FB041040
:101F9000C079401CE4B20A21034A01FB0421C87144
:101FA00070BD00000C6A0008980A002084670008D1
:101FB000E86800081C6A000820A107000000E03F54
:101FC00010B5002404E02000C0B2FFF709FF641C34
:101FD000E4B2012CF7D310BD1CB500240CE00020A6
:101FE00001900120009064234FF4FA620221200046
:101FF000C0B200F005F8641CE4B2062CEFD313BDA8
:10200000F0B4049C059DC0B20E26DFF8FC7306FBFD
:1020100000763679022E0DD0C0B20E26DFF8E873B6
:1020200006FB0076C0B20E27DFF8DCC307FB00C753
:102030003F79B770C0B20E26DFF8CC7306FB00768E
:102040003171C0B20E26DFF8C07306FB00760027A0
:10205000F780C0B20E26DFF8B07306FB00760027CB
:10206000378192B20A2692FBF6F2C0B20E26DFF852
:10207000987306FB007672819BB20A2293FBF2F200
:10208000C0B20E23DFF8806303FB00639A81C0B205
:102090000E22DFF8743302FB00329473EDB2002D90
:1020A0001BD1C9B200290CD1DFF85C130978C0B28A
:1020B000DFF85823805C31EA0000DFF84C13087029
:1020C00010E0DFF844130978C0B2DFF84023805CE9
:1020D0000843DFF83413087004E0C0B2CB49405C19
:1020E000C9490870F0BC7047C0B2FF283FD100203A
:1020F000C0B2062876D2C0B20E21C34A01FB00212D
:102100000979002931D0C0B20E21BF4A01FB00215C
:1021100000220A71C0B20E21BB4A01FB002100223D
:10212000CA80C0B20E21B84A01FB002100220A81F8
:10213000C0B20E21B44A01FB002100224A81C0B284
:102140000E21B14A01FB002100228A81C0B20E217A
:10215000AD4A01FB002100228A73AB490978C0B265
:10216000AA4A825C9143A84A1170401CC0E7C0B2E1
:102170000E21A54A01FB00210979002932D0C0B205
:102180000E21A14A01FB002100220A71C0B20E21DA
:102190009D4A01FB00210022CA80C0B20E219A4A4A
:1021A00001FB002100220A81C0B20E21964A01FBE8
:1021B000002100224A81C0B20E21934A01FB002176
:1021C00000228A81C0B20E218F4A01FB0021002229
:1021D0008A738D490978C0B28C4A805C31EA00006C
:1021E000894908707047C0B20E21874A01FB00215F
:1021F0000979022940F0A080C0B20E21824A01FB79
:102200000021897B0129C0F08F80C0B20E217E4A57
:1022100001FB0021C978002923D1C0B20E217A4ADE
:1022200001FB00210989002953D177490978C0B2FF
:10223000764A825C1143744A1170C0B20E21724A10
:1022400001FB0021C0B20E226F4B02FB003252890B
:10225000CA80C0B20E216C4A01FB00210122CA7063
:1022600037E0C0B20E21684A01FB0021C98800296D
:102270002FD165490978C0B2644A825C9143624AB1
:102280001170C0B20E21604A01FB0021C0B20E22C3
:102290005D4B02FB003292890A81C0B20E215A4A7C
:1022A00001FB00210022CA70C0B20E21564A01FB78
:1022B0000021897BFF290CD2C0B20E21524A01FBBA
:1022C0000021897B491EC0B20E224F4B02FB003217
:1022D0009173C0B20E214C4A01FB0021C98801292B
:1022E0000CD3C0B20E21484A01FB0021C988491E07
:1022F000C0B20E22444B02FB0032D180C0B20E218C
:10230000414A01FB00210989012960D3C0B20E2195
:102310003D4A01FB00210989491EC0B20E223A4BF9
:1023200002FB0030018152E0C0B20E21364A01FBAF
:102330000020002101714AE0C0B20E21324A01FBA7
:1023400000210979012921D1C0B20E212E4A01FBB9
:102350000021C97800293AD12B490978C0B22B4A0B
:10236000825C1143284A1170C0B20E21264A01FB3B
:102370000021C978002901D1012100E00021C0B26B
:102380000E22214B02FB0030C17020E0C0B20E21B2
:102390001D4A01FB0021C978012918D11A49097881
:1023A000C0B21A4A825C9143174A1170C0B20E2122
:1023B000154A01FB0021C978002901D1012100E063
:1023C0000021C0B20E22104B02FB0030C1707047DA
:1023D00010B5002404E02000C0B2FFF704FF641C25
:1023E000E4B2062CF7D308480078074949788842B8
:1023F00009D0054802786821002003F09DFF0248BB
:1024000001490978417010BD90100020806A0008D1
:1024100010B5C0B2002827D190229249924803F00B
:10242000D8FE9148808980B2410A89B242F2107286
:1024300080B2431113F00F036424634302FB0131A4
:1024400080B210F01F004018884988421BD001203C
:1024500000F060F89021834803F080FE90228149CB
:10246000814803F0A5FE0EE0C0B201280BD1002088
:1024700000F050F890217B4803F070FE90227949DB
:10248000794803F095FE7A480021017278480121CD
:1024900080F832107648B421C180764880690028DF
:1024A00004D174487049096E81610BE071488069FC
:1024B0006D49096E401AB0F5B46F03D96D486A4989
:1024C000096E81616B4880696749096B88421BD23C
:1024D0006548006B67498969401A04F035FA664916
:1024E00003F0ECFA04006048006B04F02DFA0100E0
:1024F000200003F00DF904F075F800225F4B03F0A3
:10250000F9F903F0E3FD00E0002004F0DBF859499D
:10251000888210BD10B45A49C0B2002800F09F80D4
:1025200000200BE00A780A2392FBF3F403FB142249
:102530003032C0B24C4BC254491C401CC0B20828B7
:1025400013D20A78303AD2B20A2A09D30A78413A29
:10255000D2B21A2A04D30A78613AD2B21A2AE1D244
:10256000C0B2414A0B788354E6E73F4864210181B9
:102570003D48642141813C4842F2F42181813A483E
:102580002321C18138484B21018237487321418280
:102590003548962181823448FA21C18232484FF46D
:1025A0007A710183304840F6AC5141832E4840F6A1
:1025B000B83181832C4841F27071C1832A484FF4AD
:1025C0007A71018428484FF4FA614184264840F624
:1025D000B831818424484FF4C871C18422484FF433
:1025E000FA71018520484FF4167141851E48B421C7
:1025F00081851D484FF46171C1851B4821490163E4
:10260000002015E0C0B2184911EB80014FF461724F
:102610008A86C0B2144911EB80014FF4C862CA86A1
:10262000C0B2114911EB40010122A1F85020401C19
:10263000C0B20728E6D30C48002101660A480021F1
:10264000A0F86410002007E0C0B2074911EB800138
:102650005FF0FF328A66401CC0B20628F4D310BC7B
:102660007047000000F80108000F0020E09A020007
:102670003C100020900F00200000C8420000E03F06
:10268000EAF7FF1F00A302002DE9F04185B0C1F376
:102690004203C9B20C0911F00106E118DBB2012BAB
:1026A00000D3491C002A01D5574200E0170000253D
:1026B00011E05FF00A0CB7FBFCFE0CFB1E7C1CF16A
:1026C000300CEDB20DF1000E05F80EC05FF00A0CF3
:1026D000B7FBFCF76D1CEDB2DBB29D42E9D30025E0
:1026E00011E05FF00A0CB7FBFCFE0CFB1E7C1CF13A
:1026F000300CEDB20DF1080E05F80EC05FF00A0CBB
:10270000B7FBFCF76D1CEDB2E4B2A542E9D35FF074
:10271000000C5FF0000E0027002505E05CF0010CC6
:10272000EDB205F800E06D1CEDB2E4B2A54222D294
:10273000E4B2EDB2B4EB050E0DF108081EEB080E85
:102740001EF801EC5FFA8EFEBEF1300FE6D15FFAA3
:102750008CFCBCF1010F02D0F6B2012E03D1EDB218
:1027600005F800E0DFE7EDB25FF0200805F8008033
:1027700057F00107D7E75FFA8EFEBEF1300F03D1A5
:10278000EDB22C1804F801ECDBB2012B03D3EDB24F
:102790002E242C546D1C01240AE0DBB2E4B21E1B73
:1027A0000DF1000C16F80C60EDB22E546D1C641C7B
:1027B000DBB2E4B2A342F0D2EDB200232B54002AE4
:1027C00029D5FFB2012F11D10D0000E06D1EEDB231
:1027D000012D20D3EDB2291811F8011C2029F5D1C3
:1027E000EDB228182D2100F8011C14E00278302ADF
:1027F00002D12D2101700EE00D0006E0EDB2291886
:1028000011F8011CEDB229546D1EEDB2012DF5D267
:10281000EDB22D21295405B0BDE8F081002103E07F
:10282000521C242AFCD3491C814201D20022F8E721
:102830007047000010B584B000240121DFF8980330
:1028400002F0CEF90020040016E0E4B2DFF88C03B9
:1028500010EBC4008088ADF8080003208DF80A0052
:1028600010208DF80B0002A9E4B2DFF8700350F8D5
:10287000340002F049F9641CE4B2022CE5D30020D4
:102880000190FF2000904FF4FA734FF4FA72022186
:10289000002000F009F8DFF844038189DFF83C03E9
:1028A000806802F09AF91FBDF0B4049C059DC0B287
:1028B0000E26DFF82C7306FB0076B678022E0DD0BC
:1028C000C0B20E26DFF8187306FB0076B678C0B2E9
:1028D0000E27DFF80CC307FB00C73E70C0B20E2600
:1028E000DFF8FC7206FB0076B170C0B20E21DFF893
:1028F000F06201FB006100268E80C0B20E21B84E4E
:1029000001FB00610026CE8092B20A2192FBF1F118
:10291000C0B20E22B24E02FB006211819BB20A21AC
:1029200093FBF1F1C0B20E22AD4B02FB003251819C
:10293000C0B20E21AA4A01FB00210C73C0B20E21C5
:10294000A74A01FB00204570F0BC704710B5040099
:10295000E4B20E20A24A00FB04208078022840F056
:10296000CA80E4B20E209E4A00FB0420007B0128AE
:10297000C0F0B480E4B20E20994A00FB04204078F5
:10298000002835D1E4B20E20954A00FB0420C0880F
:10299000002877D1C9B200290BD1E4B28F4810EBDF
:1029A000C4008188E4B28D4850F8340002F015F973
:1029B0000AE0E4B2894810EBC4008188E4B2874899
:1029C00050F8340002F006F9E4B20E20844900FB0E
:1029D0000410E4B20E21824A01FB0421098981809E
:1029E000E4B20E207E4900FB04100121417049E051
:1029F000E4B20E207A4A00FB04208088002841D1EE
:102A0000C9B200290BD1E4B2744810EBC40081882C
:102A1000E4B2724850F8340002F0DCF80AE0E4B2A4
:102A20006E4810EBC4008188E4B26C4850F8340062
:102A300002F0D3F8E4B20E20694900FB0410E4B2BE
:102A40000E21674A01FB04214989C180E4B20E20AE
:102A5000634900FB041000214170E4B20E2060497C
:102A600000FB0410007BFF280CD2E4B20E205C496E
:102A700000FB0410007B401EE4B20E21584A01FB0B
:102A800004210873E4B20E20554900FB041080882D
:102A900001280CD3E4B20E20514900FB04108088B9
:102AA000401EE4B20E214E4A01FB04218880E4B2AC
:102AB0000E204B4900FB0410C0880128C0F08A801A
:102AC000E4B20E20464900FB0410C088401EE4B268
:102AD0000E21434A01FB0421C8807BE0E4B20E20B2
:102AE0003F4900FB0410E4B20E213D4A01FB0421E2
:102AF000097881706EE0E4B20E20394A00FB0420B0
:102B00008078012833D1E4B20E20354A00FB04203E
:102B1000407800285ED1C9B200290BD1E4B22F4819
:102B200010EBC4008188E4B22C4850F8340002F065
:102B300054F80AE0E4B2294810EBC4008188E4B2FA
:102B4000264850F8340002F045F8E4B20E2024493B
:102B500000FB04104078002801D1012000E0002093
:102B6000E4B20E211E4A01FB0421487032E0E4B2B7
:102B70000E201B4A00FB0420407801282AD1C9B24C
:102B800000290BD1E4B2154810EBC4008188E4B2EF
:102B9000124850F8340002F01DF80AE0E4B20F4881
:102BA00010EBC4008188E4B20C4850F8340002F005
:102BB00014F8E4B20E200A4900FB04104078002803
:102BC00001D1012000E00020E4B20E21044A01FB03
:102BD0000421487010BD0000000230002C6A00087B
:102BE000E810002010B5002405E001212000C0B24B
:102BF000FFF7ACFE641CE4B2022CF6D310BD00005B
:102C0000002203881A00DFF87033984212D0DFF8F0
:102C1000803398420ED0B0F1804F0BD0DFF85C3398
:102C2000984207D0DFF85833984203D0DFF8543386
:102C3000984204D14FF68F731A404B881A43DFF83D
:102C40004833984208D0DFF84433984204D04FF616
:102C5000FF431A40CB881A4302808A8882850A88FB
:102C60000285DFF8142390420FD0DFF8242390422E
:102C70000BD0DFF82023904207D0DFF81C239042CE
:102C800003D0DFF81823904201D1097A018601218F
:102C90008182704730B4002300240022058C25F087
:102CA00010050584058C2C0085882A00058B2B00D7
:102CB00048F6FF752B404FF6FF452B400D8853EA31
:102CC000052324F020040D8954EA05144D8854EAA4
:102CD0000514DFF8A452A84203D0DFF8B452A8428A
:102CE00013D124F080044D8954EA051424F04004E3
:102CF0008D8854EA051422F4806222F400628D89E2
:102D000052EA8502CD8952EA850282800383C9880E
:102D10000187048430BC7047F8B504000D0000261C
:102D200001276888002801D1022600E00026A88833
:102D3000012801D1022700E001272888002816D1A8
:102D40002B89AA886988200000F0ACF8E988200067
:102D500000F076F82B893A0092B2310089B2200057
:102D600000F0D3F8E988200000F073F815E02B8913
:102D7000AA886988200000F0C8F8E988200000F0DF
:102D800068F82B893A0092B2310089B2200000F035
:102D900089F8E988200000F053F8F1BD4FF6FF7183
:102DA0008180002101800021C1800021418000211B
:102DB00001727047C9B2002904D0018851F00101A5
:102DC000018003E0018821F0010101807047D2B247
:102DD000002A03D082891143818103E0828932EA8B
:102DE000010181817047002203891A004FF68F7319
:102DF0001A400A4302817047C9B2002904D00188F1
:102E000051F08001018003E0018821F08001018000
:102E1000704702894FF6F8731A4002810289114304
:102E200001817047028922F08002028102891143E8
:102E300001817047818470478185704701877047A1
:102E4000028B4FF6F3731A400283028B1143018306
:102E50007047028B4FF2FF331A400283028B52EA13
:102E6000012101837047808E7047008F704730B416
:102E7000002200230024058A0D402B008089084091
:102E800004009BB2002B04D0A4B2002C01D001227C
:102E900000E000221000C0B230BC704789B2C943C4
:102EA0000182704770B400250024068C26F00106CC
:102EB0000684068B3500068C34004FF60C763540C0
:102EC00052EA031215432C4A90420ED0304A9042E7
:102ED0000BD0B0F1804F08D0284A904205D0284A44
:102EE000904202D0274A904205D124F0020451F0CA
:102EF00001010C4305E04FF6F572144051F0010159
:102F00000C430583048470BC7047F0B40026002491
:102F10000025078C27F010070784078B3E00078CDD
:102F20003C000F013D0040F6FF473E4056EA0336A5
:102F300056EA0226104A90420ED0154A90420BD013
:102F4000B0F1804F08D00D4A904205D00C4A904213
:102F500002D00C4A904205D124F0200455F0100113
:102F60000C4305E04FF65F72144051F010010C4322
:102F700006830484F0BC7047002C0140000400402C
:102F800000080040000C0040001000400014004009
:102F9000003401400040014000440140004801402D
:102FA00070B40123002400E0641CE4B2D2B2944265
:102FB00006D2E4B2255CE4B2665CB542F4D00023EC
:102FC0001800C0B270BC704710B4002304E0DBB23C
:102FD000DBB25C5C1C545B1CDBB2D2B29342F6D316
:102FE00010BC704780B5002003F086F900200AE08D
:102FF000C0B2BE494118FF228A72C0B2BB49411813
:1030000000224A73401CC0B20328F1D3B748002104
:10301000C180B64800210171B44801210170B34854
:1030200001214170B14807210172B0480721417266
:10303000AE48C821418001BD0021B0F13002D2B2BA
:103040000A2A05D2C0B2AA49401810F8301C22E062
:10305000B0F14102D2B21A2A05D2C0B2A449401836
:1030600010F8371C17E0B0F16102D2B21A2A05D26B
:10307000C0B29F49401810F8571C0CE0C0B220287D
:1030800003D19B4890F8251005E0C0B22D2802D14D
:10309000974890F824100800C0B2704770B504003B
:1030A0000D0016009148007A9249405C56EA0001F2
:1030B000C9B22000C0B203F024F9F6B2012E10D13B
:1030C00000260BE0F6B2725DF6B270428A494018F3
:1030D000C1782000C0B203F02FF9761CF6B2032E9F
:1030E000F0D370BD2DE9F04F83B004000D00160041
:1030F0001F0001A8002101605FF000085FF00009D7
:103100005FFA89F919F804A005E019F101095FFADD
:1031100089F919F804A05FFA8AFABAF1000F58D0B9
:103120005FFA89F9B9F1060F53D25FF0000B5FFA2D
:1031300088F801A818F8000000905046C0B2FFF7C8
:103140007BFF009908435FFA88F801A908F801009D
:103150005FFA8AFABAF12E0F0ED15FFA88F801A849
:1031600018F8000050F080005FFA88F801A908F80C
:1031700001005FF0010B08E05FFA89F919EB040028
:1031800040782E2801D05FF0010B5FFA8BFBBBF17A
:10319000010FBAD15FFA88F801A818F800005FFAA9
:1031A00088F8524918EB0101897A88420AD05FFAFF
:1031B00088F84E4818EB00005FFA88F801A918F863
:1031C0000110817218F101085FFA88F8B8F1030F55
:1031D0009BD3464807714548057044480672BDE8D0
:1031E000F78F80B541480078012857D13F480079D2
:1031F00000281DD1032241494148FFF7D1FEC0B24A
:10320000002807D039484079002803D13748407852
:1032100000282ED101223A490020FFF73FFF032268
:1032200037493648FFF7D0FE30480021417120E091
:103230002E48C088652810D22C48C088401C2B49D5
:10324000C8802A48C088642807D1012226A100200E
:10325000FFF724FF25480021C1802448C088322878
:1032600004D1012226490020FFF718FF1F48012141
:1032700041711E48407A1D49097A884209D01B488D
:1032800042781F490020FFF709FF18481749097ABB
:10329000417216481549097841700BE0134840788F
:1032A000012807D1012210A10020FFF7F7FE0F48E7
:1032B000002141700D484088022813D30B484088F4
:1032C000401E0A4948800948408801280AD1074819
:1032D00000214180054800210170012202A1002047
:1032E000FFF7DCFE01BD000000000000041100201B
:1032F00048680008886A0008C06A000811110020A8
:103300000E11002000B589B0A9488088ADF80000F2
:1033100003208DF8020018208DF8030000A9A448AE
:10332000006801F0F1FB01A8FFF738FD6320ADF85C
:1033300008002320ADF804000020ADF80A000020AA
:10334000ADF8060001A99B48FFF75AFC6020ADF8D4
:1033500010000020ADF816000220ADF81800012082
:10336000ADF8120004A99348FFF794FC012191489D
:10337000FFF720FD64218F48FFF760FD8E48002194
:1033800001708D48002181708B48002141708A486E
:103390006421C17009B000BD8749097800290FD1A7
:1033A000C0B2012839D3844902220A7082494622D8
:1033B000CA70814905228A807F4901224A702CE027
:1033C000C0B2002806D17C496422CA707A49002222
:1033D0000A7022E0411EC9B2032908D2C0B277495F
:1033E000415C754AD170744901220A7015E0C0B27F
:1033F000802812D17249897C11F003016E4AD2787B
:10340000C9B2704BC95C8A4204D26B49C978891C25
:10341000694AD170684901220A706749097802290E
:1034200002D0654901224A7063498870704780B5AF
:103430006549498D80B281422DD080B200280FD1DC
:10344000614991F82F10002906D15D49897C11F05E
:103450002F015D4A118503E05B49594A528A0A856A
:10346000574948825649897C090608D58020FFF7CC
:1034700093FF5348418A21F08001418207E010F018
:103480000F00C0B2042802D2C0B2FFF785FF4E4839
:103490004B49498A418501BD80B5474800780228DB
:1034A0000AD145488088002806D14348012101708F
:1034B00041488078FFF770FF3F484078002808D0E7
:1034C0003D48C17889B23B48FFF7B8FC3A48002133
:1034D000417001BD38B500243948807C10F00F00E0
:1034E000012858DB39480068401C384908603848D2
:1034F0000068401C364908603448006835498842F5
:1035000012D13348002101603048002101602C486D
:10351000806910F5B4602A4988612F482849896973
:10352000016654F0010436E0294800683C2832D195
:1035300027480021016022488069401C2049886199
:1035400025481F49896901661D4880692249096B20
:1035500088421BD22048006B19498969401A03F040
:10356000F3F91E4902F0AAFA05001B48006B03F0AC
:10357000EBF90100280002F0CBF803F033F8002249
:10358000174B02F0B7F902F0A1FD00E0002003F0B4
:1035900099F80B498882E4B2012C08D19021114896
:1035A00002F0DCFD90220F490B4802F001FE31BD14
:1035B000786A00080004004080100020B86A000803
:1035C000900F0020BC6A00083C10002088100020EA
:1035D0008C10002080510100000F00200000C84224
:1035E0000000E03F00F80108AF48B0490160AE4874
:1035F00000214171AC48AE49C160AB48AD490161A1
:10360000A94800214161A848AB498161A648002131
:103610004177A54800214162A348A8498162A24898
:10362000A749C16200201CE0C0B218219E4A01FBDC
:10363000002100220A71C0B218219B4A01FB00211F
:103640000022CA80C0B21821974A01FB0021002243
:103650000A81C0B21821944A01FB002100224A814C
:10366000401CC0B20228DFD38F4841F28831418428
:10367000704770B5049CC0B218258B4E05FB0065E1
:103680002D686D7D002D3DD1C0B21825864E05FBFD
:1036900000652D68E960C0B21825834E05FB006502
:1036A0002D682A82C0B218227F4D02FB0052126898
:1036B00000255582C0B218227B4D02FB00521268D1
:1036C0001375C0B21822784B02FB00321268012336
:1036D0005375C0B21822744B02FB00321481C0B281
:1036E0001822714B02FB003209781171012240F25D
:1036F0002771C0B218236C4C03FB004000680068BF
:1037000000F076FC70BD002203E003789A18401C9C
:10371000491E89B20129F8D2100080B2704710B456
:103720000022002303E0DBB21C5CA2185B1CDBB2AE
:10373000C9B28B42F7D3100080B210BC7047F8B505
:103740000400E4B21820584A00FB04252E68B07A21
:10375000012801D3002057E0E888328980B292B274
:10376000904201D100204FE080B292B2904201D24B
:10377000121A02E002F20022121A92B289B28A42AE
:1037800001D2002040E0716800230BE080B29BB2C0
:103790001F18B7F500779BB2DFF828C17F5C03F8EC
:1037A0000C705B1C9BB292B293420AD280B29BB265
:1037B0001F184FF4007C6745E8DA80B29BB21F18EF
:1037C000E9E792B23F48101810F8010C92B23D4957
:1037D000511811F8021C11EB0027911E89B23948CB
:1037E000FFF791FFBFB2B84207D12869002804D083
:1037F0002100C9B233482A6990470020688100201F
:10380000E880002030810120F2BD2DE9F041040064
:10381000E4B21820244A00FB04252E68B07A01285F
:1038200001D300203EE0B5F90A0001280ED141F293
:1038300088306881002030816869002804D0210028
:10384000C9B200206A69904700202BE0308902004D
:10385000D2B292B289B28A4221D17768C0B2C1197C
:1038600011F8021CC0B2C21912F8012C12EB012887
:10387000811EC9B23800FFF752FF1FFA88F8404591
:103880000BD1286900280AD041F2883068812100D4
:10389000C9B238002A69904701E000206881002001
:1038A00030810120BDE8F081A40A002044110020ED
:1038B0009B100008FF1300085C110020595C0008F1
:1038C000B75C0008D40A002080B501F0CFF900F001
:1038D0005AF800F087F800F0C4F800F036F901F06B
:1038E00095FF0020FEF794FD01F06CFAFFF77CFED7
:1038F000FCF730FFFEF79EFFFEF74EF900F0B0FE3A
:1039000001F04CFCFFF7FEFC00F04CF9FCF724FE44
:103910009F480088002812D1FCF74AFFFCF740FFBF
:1039200002F088FE00F0ADF900F0F5FEFFF75AF95D
:10393000FDF766F9FFF7B0FD95480A21018095482B
:10394000008800280DD100F09AFDFFF7C3FDFCF7B9
:103950001EFE01F064FCFCF7EBFC8E484FF47A711C
:1039600001800A210020FFF7EAFE20210120FFF755
:103970004CFF00210020884AD2689047FEF720FBC8
:1039800003F064F8C4E780B501211D2000F0A8FF12
:1039900001214FF4007000F0A3FF01214FF40060FB
:1039A00000F09EFF0121012000F0AAFF012102206A
:1039B00000F0A6FF0121042000F0A2FF0121012058
:1039C00000F07EFF01214FF4804000F089FF0121CB
:1039D0005FF4003000F094FF01215FF0805000F0B0
:1039E0008FFF01BD80B54FF40070ADF800001820C6
:1039F0008DF8030003208DF8020000A9674801F04C
:103A000083F84FF48060ADF8000004208DF80300C7
:103A100000A9624801F078F80420ADF800001820F1
:103A20008DF8030003208DF8020000A95B4801F027
:103A30006BF80820ADF8000004208DF8030000A901
:103A4000564801F061F80120ADF8000002208DF821
:103A5000020000208DF8030000A9504801F054F83E
:103A600001BD80B500215FF0006002F03BFA4FF429
:103A7000E06002F0FFF90B208DF8000000208DF8C7
:103A8000010003208DF8020001208DF8030000A83A
:103A900002F0F5F919208DF8000000208DF80100E2
:103AA00002208DF8020001208DF8030000A802F02A
:103AB000E6F925208DF8000000208DF80100042093
:103AC0008DF8020001208DF8030000A802F0D7F95C
:103AD00026208DF8000000208DF8010005208DF8CB
:103AE000020001208DF8030000A802F0C8F90120AF
:103AF0008DF8000000208DF8010000208DF80200F4
:103B000001208DF8030000A802F0B9F91E208DF8FD
:103B1000000000208DF8010001208DF80200012036
:103B20008DF8030000A802F0AAF91C208DF800000F
:103B300000208DF8010006208DF8020001208DF88C
:103B4000030000A802F09BF901BDE0B540F2E730A8
:103B5000ADF800004720ADF804000020ADF80600E5
:103B60000020ADF8020000208DF8080000A90C48E4
:103B7000FFF746F801210A48FFF73EF9012201212B
:103B80000748FFF724F901210548FFF713F907BD9E
:103B9000B4080020B6080020A40A00200008014054
:103BA000002C014000B587B04020ADF80000032094
:103BB0008DF8020004208DF8030000A9974800F05A
:103BC000A3FF04A8FFF7EAF842F6DF60ADF814009F
:103BD0004720ADF810000020ADF816000020ADF829
:103BE000120004A98E48FFF70BF80020ADF804007E
:103BF0000020ADF806000120ADF808000020ADF867
:103C00000A000020ADF80C0001A98548FFF784F8F0
:103C100050218348FFF7E7F804218148FFF7F9F8BE
:103C200080217F48FFF7FEF801217D48FFF7C2F8A9
:103C3000012202217A48FFF7CAF802217848FFF7EB
:103C40002DF907B000BD0021002200E0521CD2B2C5
:103C5000062A07D2D2B2734B13EB82039B6E9842B3
:103C6000F4D1511CC9B2002908D1000900016D4AE4
:103C7000926E12091201904200D107210800C0B2D1
:103C8000704700B583B068488068002809D00020DC
:103C90000190042000903223322202210120FEF7FD
:103CA00003FE6148407B002823D15F4880680028DC
:103CB0001FD05D488068FFF7C6FF5B4908735A480C
:103CC000002181605948B421C18058483C21418479
:103CD00056483C2141815548007A002806D1544875
:103CE000408A012802D35048002101734F48012126
:103CF000017200F01BF807BDC0B2012806D14A4886
:103D00000121417348483C21017408E046480021E4
:103D10004173454800210174434800210173424822
:103D20000021C173404800218173704780B5002095
:103D30003D49497B012970D13B48806800286CD0FF
:103D40003948007A10F00F00032860D13648C07B54
:103D500003285FD23448C07B3649334A926841F821
:103D600020203148C07B401C2F49C8732E48C07B9F
:103D700003284FD12F4800682E494968884242D114
:103D80002C4800682B49896888423CD12A48294937
:103D90000968016024480021C17323480021417350
:103DA00021480021017420480321817322480068C2
:103DB000000900011B49204A12688A66194950F01F
:103DC0000902CA66174950F007020A67154950F000
:103DD00004024A67134950F002028A67114950F001
:103DE0000800C8679021154802F0B8F990221349DD
:103DF0000C4802F0DDF909210020FDF76AFF0020E0
:103E0000FEF772F906E008480021C17302E0064897
:103E10000021C17304480021816001BD000C0140F4
:103E200000080040000F0020141100203C1000206A
:103E3000900F0020281100203411002000F8010804
:103E400080B5524988420AD101214FF4804000F0E8
:103E500067FD00214FF4804000F062FD36E04C49E0
:103E600088420AD101215FF4003000F069FD002191
:103E70005FF4003000F064FD28E0464988420AD132
:103E800001215FF4802000F05BFD00215FF48020C1
:103E900000F056FD1AE0404988420AD101215FF442
:103EA000002000F04DFD00215FF4002000F048FDEF
:103EB0000CE03A49884209D101215FF4801000F0FA
:103EC0003FFD00215FF4801000F03AFD01BDF0B528
:103ED00085B004000D0000200021002200230026F0
:103EE000AF89002F2600208A4CF6FF710840E98830
:103EF00008432082A0894EF6F3110840A9882A8938
:103F000011436A8911430843A081A08A4FF6FF41FB
:103F10000840A9890843A08200A800F071FC1B4852
:103F2000864201D1039900E00299A089000407D5D7
:103F3000192000FB01F029684900B0FBF1F206E00E
:103F4000192000FB01F029688900B0FBF1F2642020
:103F5000B2FBF0F000010109642303FB1123A189E6
:103F6000090408D5D90032316422B1FBF2F111F015
:103F70000701084307E0190132316422B1FBF2F175
:103F800011F00F010843208105B0F0BD0038014059
:103F90000044004000480040004C004000500040F9
:103FA00010B40022038A1A004FF2FF031A400B8854
:103FB0004C8823438C882343C98819430A430282CF
:103FC00010BC7047002101800021418000218180C8
:103FD0000021C1807047C9B2002904D0818951F401
:103FE0000051818103E0818921F400518181704772
:103FF000F0B4002300240025002640F66A1789B299
:10400000B94206000800C0B24309DBB289B211F020
:104010001F04012010FA04F5012B01D10C3604E035
:10402000022B01D1103600E01436D2B2002A03D0A0
:1040300030682843306002E03068A8433060F0BC4C
:10404000704770B4002300240025002240F66A1651
:1040500089B2B1420A00D2B25509EDB289B211F06B
:104060001F04012212FA04F4012D02D182891440A6
:1040700006E0022D02D1028A144001E0828A144037
:1040800089B20B0A9BB2012111FA03F300880340A5
:10409000002C03D0002B01D0012200E000221000F0
:1040A000C0B270BC704710B40022002340F66A14FE
:1040B00089B2A14289B20A0A012111FA02F39BB224
:1040C000D943018010BC7047C0B2002802D04FF421
:1040D000807101E04FF40061DFF824221160C0B26A
:1040E000002802D04FF4007101E04FF48061DFF846
:1040F00010221160C0B2002810D1DFF80802006859
:1041000030F47F40DFF8FC110860DFF8F801006848
:1041100050F4AA40DFF8EC1108600FE0DFF8E4018A
:104120000068000A0002DFF8DC110860DFF8D40143
:10413000006850F05500DFF8CC110860704710B5EA
:104140000400E4B2002C02D04FF4807001E04FF480
:1041500000606B4908600120FEF760FBE4B2002CB0
:1041600002D04FF4007001E04FF4806064490860B1
:104170000120FEF753FBE4B2002C02D05FF0807008
:1041800001E05FF000605E4908600A20FEF746FB30
:10419000E4B2002C02D05FF0007001E05FF08060BC
:1041A000574908600A20FEF739FB10BD10B504001E
:1041B000E4B2002C02D05FF0007001E05FF080609C
:1041C0004F4908600120FEF729FBE4B2002C02D021
:1041D0005FF0807001E05FF00060494908600120F5
:1041E000FEF71CFBE4B2002C02D04FF4007001E09B
:1041F0004FF48060424908600A20FEF70FFBE4B2EA
:10420000002C02D04FF4807001E04FF400603C4974
:1042100008600A20FEF702FB10BDF8B504000E008E
:104220000025802708E05FF08060354908600120A4
:10423000FEF7F4FAFFB27F08FFB2012F2CD337420A
:104240000AD1E4B2002C02D05FF0807001E05FF090
:1042500000602B49086009E0E4B2002C02D04FF462
:10426000807001E04FF40060254908600120FEF7EE
:10427000D5FAE4B2002C02D04FF4007001E04FF404
:1042800080601F4908600520FEF7C8FAE4B2002CE0
:10429000C9D05FF00070C8E7E4B2002C02D04FF440
:1042A000807001E04FF4006015490860E4B2002C12
:1042B00002D04FF4007001E04FF4806010490860B4
:1042C0000120FEF7ABFAE4B2002C02D05FF00070E0
:1042D00001E05FF080600A4908600B480068E4B2C2
:1042E000002C02D04FF4807101E04FF400610842CD
:1042F00000D001250A20FEF791FA2800C0B2F2BDD5
:10430000100C0140040C0140080C014070B4040082
:104310000398A4B20D88DBB2ED1AAC4223DBA4B241
:10432000D2B231F81250DBB25D19AC4201DB501C45
:104330001AE0002500E06D1CEDB2D2B2954213D216
:10434000A4B2EDB231F81560DBB29E19B442F2DBD3
:10435000A4B2EDB211EB45067688DBB2F61AB44290
:10436000E9DA681C00E00020C0B270BC704780B57C
:104370004B4880884B494A4A92F82920D2B2009291
:104380000323042280B2FFF7C1FF454981F82900C9
:1043900043480089444980B20A881E3A904204DAB0
:1043A0003F48012180F82A1017E080B24A881E3267
:1043B000904204DB3A48022180F82A100DE080B2D6
:1043C0000A881E32904208DB80B249881E39884232
:1043D00003DA3348002180F82A10314840893349F4
:1043E00080B20A881E3A904204DA2D48012180F8F2
:1043F0002B1017E080B24A881E32904204DB284816
:10440000022180F82B100DE080B20A881E32904203
:1044100008DB80B249881E39884203DA204800212F
:1044200080F82B101E48808921491D4A92F82C20C3
:10443000D2B200922823022280B2FFF767FF184908
:1044400081F82C001648C0891A49154A92F82D2087
:10445000D2B200920A23012280B2FFF757FF10491F
:1044600081F82D000E48002180F82E100C48808A1B
:104470000F2803D20A48012180F82E1001BD80B513
:104480000D480078401C0C4908700B480078032840
:1044900004D1FFF76CFF08480021017001BD000046
:1044A000900F00200E0F0020180F00201C0F00207E
:1044B000200F0020260F00207414002030B40023A9
:1044C000002244682300DFF87C4123400C680D790A
:1044D00054EA0524234343608368DFF86C4123409A
:1044E000CC688D682C434D7954EA4504234383609E
:1044F000C36A33F47003097C491E0A43D2B253EAFB
:104500000253C36230BC7047C9B2002904D081682D
:1045100051F00101816003E0816821F001018160B7
:104520007047816851F00801816070470021806800
:10453000000701D5012100E000210800C0B270474A
:10454000816851F004018160704700218068400754
:1045500001D5012100E000210800C0B27047C9B2B6
:10456000002904D0816851F4A001816003E08168D2
:1045700031F4A00181607047F0B400240025C9B275
:104580000A2911D3C4680725B1F10A0603277E431F
:10459000B540AC43DBB2B1F10A050326754313FA0B
:1045A00005F52C43C4600EE004690725032606FBCD
:1045B00001F6B540AC43DBB2032505FB01F513FA68
:1045C00005F52C430461D2B2072A10D2446B1F2395
:1045D000551E0526754313FA05F5AC43C9B2521EA4
:1045E00005235A4311FA02F52C43446324E0D2B266
:1045F0000D2A10D2046B1F23D51F0526754313FA0D
:1046000005F5AC43C9B2D21F05235A4311FA02F58E
:104610002C43046310E0C46A1F23B2F10D05052684
:10462000754313FA05F5AC43C9B20D3A05235A4355
:1046300011FA02F52C43C462F0BC7047C06C80B222
:1046400070470000FFFEF0FFFDF7F1FF0022006859
:10465000084201D0012200E000221000C0B27047E1
:1046600080B54020ADF8000003208DF80200102036
:104670008DF8030000A95A4800F046FA2020ADF852
:10468000000003208DF8020028208DF8030000A907
:10469000534800F039FA01BD70B50026002400250A
:1046A00015E0B6B276084F485FF480010160032040
:1046B000FEF7B4F84B48402101600320FEF7AEF846
:1046C00049480068800601D556F400466D1CEDB2DD
:1046D000102DE6D3B6B216F47040B0F5204F17D1C6
:1046E0000020002506E0B6B256FA05F1C90700D54C
:1046F000401C6D1CEDB2082DF5D3B6B2311211F08D
:104700000701C0B2D0F10800814201D1F043C4B228
:10471000200080B270BD80B5FFF7BEFF80B20028D8
:104720001CD0324909884FF4FA72914229D22F499C
:104730000988491C2D4A11802C4909884FF496722A
:10474000914208D14FF480710143294A11802749D1
:104750004FF4FA720A802749088012E02348008843
:10476000401E40F22B1180B2884203D220482149DA
:10477000098801801D480088012802D31B480021B8
:1047800001801B480088012819D31B48B421C1802F
:1047900019483C21418418483C2141811648007A3F
:1047A000002809D11548408A012805D31048002166
:1047B00001801148012101720F48012101720E4848
:1047C000408C01280AD10A480088002803D10848F3
:1047D0004FF6FF71018008480021418401BD0000AF
:1047E0000008014010080140080801406E14002034
:1047F0006A1400206C1400203C100020900F002050
:1048000030B40022002100230024554D2D6815F0FE
:104810000C052A00002A04D0042A05D0082A06D054
:1048200021E05049016020E04E4901601DE04C4903
:10483000096811F470114A4A126812F48033890C25
:10484000891C002B03D1484A514301600DE0444AC2
:104850001268920303D5444A5143016005E0414A7E
:104860005143016001E03F4901603D49096811F091
:10487000F00212093D49545C0168E1404160384949
:10488000096811F4E062120A3849545C4168E14059
:1048900081603349096811F46052D20A3349545C8B
:1048A0004168E140C1602E49096811F44042920B11
:1048B0002F49545CC168B1FBF4F1016130BC704711
:1048C000C9B2002905D02B49096808432949086065
:1048D00005E02849096831EA000026490860704768
:1048E000C9B2002905D02449096808432249086053
:1048F00005E02149096831EA00001F490860704756
:10490000C9B2002905D01D49096808431B49086040
:1049100005E01A49096831EA000018490860704743
:10492000C9B2002905D0164909680843144908602E
:1049300005E01349096831EA000011490860704731
:10494000C9B2002905D00F49096808430D4908601C
:1049500005E00C49096831EA00000A49086070471F
:104960000410024000127A0000093D0000080020F7
:104970001008002014100240181002401C100240C1
:104980000C1002401010024070B44FF0004591EA44
:10499000030F44BF6B4000F0B6BF841A71EB0306EF
:1049A00004D26E40001BB141121973414FF4001C38
:1049B0001CEB410F34BF7CEB430684E00C0DA4EBF1
:1049C0001356362E7DDC012E43DC45EAC32343EA31
:1049D000525312BFD20292025B08240545EAC1215C
:1049E00041EA5051D2EBC020994125D407D1B0FA09
:1049F00080F610FA06F164D00020203608E0B1FA03
:104A000081F6B140C6F1200220FA02F21143B04013
:104A10004FEAF474B4EB465434F001064FEA7404E0
:104A20000AD8D6F50016760D04F00044F04061FA7D
:104A300006F25040F1404840C00A40EA415021F09F
:104A4000004128BF5FEA500550F1000044EBD1213E
:104A500037E045EAC323DB0A45EAC121C90AB6F1BA
:104A600020050EDD42EA0242120CC5F1200603FACF
:104A700006F6EB4042EA06056D42984161F10001FD
:104A80000DE062FA06F5F240554063FA06FC82EA50
:104A90000C02F3405A406D42904161EB030111F466
:104AA000801F05D1641E620502D06D00404149415E
:104AB00021F48011430875F1004350F1000041EBEF
:104AC000045170BC70471CEB410F15D223F000431A
:104AD00052EA43060BD04FEA4C0CBCEB410F04D812
:104AE0000C0D661E342EB7DDEBE7801A994150EAB3
:104AF000410608BF0021E4E708BF1CEB430F28BFB5
:104B00006FF00001DDE70000F0B400220026002471
:104B100000250023002791F803C01CF00F0C62460B
:104B200091F803C05FEACC6C01D58B781A430B78FF
:104B30001B0621D00368002406E0CD78482D02D161
:104B40000125A5400561641C082C14D20125A5404F
:104B50000E882E40AE42F6D1A5000F2616FA05F7B4
:104B6000BB4312FA05F52B43CD78282DE5D101255D
:104B7000A5404561E7E703600B884FF48074A342CA
:104B800026D34368002420E0012514F10806B5402F
:104B90000E882E40AE4217D1A5000F2616FA05F753
:104BA000BB4312FA05F52B43CD78282D04D10125FE
:104BB00014F10806B5404561CD78482D04D1012592
:104BC00014F10806B5400561641C082CDCD3436071
:104BD000F0BC704789B20161704789B2416170478A
:104BE00070B40022002400230025002802D51D4AAD
:104BF000136801E01C4A1368C0F3034582B210F445
:104C00004014B4F5401F08D133F07063164C24688B
:104C100034F07064144D2C6010E0C40205D50324F8
:104C2000AC40A34353F0706308E0C0F34754E4B2D0
:104C3000240112FA04F4A34353F07063C9B20029AB
:104C400006D0C0F34751C9B2090112FA01F10B4372
:104C5000002802D50348036001E00348036070BCEC
:104C6000704700001C0001400400014080B54E4820
:104C7000006850F001004C4908604C4800684C49FD
:104C800008404A490860484800684A49084046497F
:104C900008604548016821F48021016043480068AC
:104CA00030F4FE004149086043485FF41F01016091
:104CB00000F005F841485FF00061016001BD80B57A
:104CC00000F001F801BD82B00020019000200090AA
:104CD0003548006850F48030334908603248006835
:104CE00010F4003000900198401C019000980028BA
:104CF00003D10198B0F5A06FF0D12B480068800374
:104D000002D50120009001E00020009000980128C9
:104D100047D12B48006850F0100029490860284806
:104D2000006880088000264908602548006850F027
:104D30000200234908601D481C49096801601B489E
:104D40001A49096801601948006850F480601749E1
:104D500008601648006830F47C1014490860134855
:104D6000006850F4E810114908600F48006850F0DE
:104D700080700D4908600C4800688001FBD50B4825
:104D8000006880088000094908600848006850F001
:104D90000200064908600548006810F00C00082869
:104DA000F9D102B070470000001002400410024028
:104DB0000000FFF8FFFFF6FE0810024008ED00E0DB
:104DC0000020024010B588B000A850490CC90CC0A2
:104DD00008390838002440E04FF4165004900020B1
:104DE000ADF814000020ADF816000020ADF8180052
:104DF0000020ADF81C000C20ADF81A000020ADF822
:104E000008000020ADF80A004FF40070ADF80C0067
:104E10000020ADF80E0004A9E4B200A850F8240068
:104E2000FFF755F802A8FFF7CDF802A9E4B200A8F1
:104E300050F82400FFF7B4F80121E4B200A850F8BC
:104E40002400FFF7C8F8012240F22551E4B200A87F
:104E500050F82400FFF7CCF8641CE4B2022C0CD20A
:104E6000E4B200A850F82400FEF7EAFFE4B2002CF8
:104E7000B2D14FF416500490B1E700243BE0E4B205
:104E80001820234900FB0410E4B200A951F82410B3
:104E90000160E4B218201E4900FB041000210181CA
:104EA000E4B218201A4900FB041000218172E4B218
:104EB0001820174900FB04100021C160E4B218203B
:104EC000134900FB041000210182E4B218201049AC
:104ED00000FB041000214182E4B218200C4900FBC1
:104EE000041000210175E4B21820094900FB0410E8
:104EF00000214175641CE4B2022CC0D3044805496A
:104F0000416003480449C16108B010BD986A0008B7
:104F10004411002074110020741300204948406897
:104F200001F062B910B5484C206810B9474801F04B
:104F3000BBFD0120206010BD2DE9F84F0446444818
:104F400008B1FFF7EFFF43480068010018BF804732
:104F500041480068010018BF8047404E3068394D15
:104F60002968814221D0007880B93D4F38680078A7
:104F700010B901F095FD386000AA0321386801F0EE
:104F8000C3FB3060017809B1401E3060306800F02A
:104F9000AEF9070003D14FF0FF30BDE8F28F68682B
:104FA00001F022F96F6030682860002600216069F6
:104FB00000F0A4FA07464FF01808A068E16908FB62
:104FC0000109606940F26D1101FB0070401C4FF057
:104FD000070A90FBFAF10AFB110000F10E0B6D6855
:104FE00002E0002605F205052878FF2820D0606938
:104FF00029798842F6DBE97800F080FAC01BA978AD
:105000000818297879B10BEB00012A78891A91FBED
:10501000FAF20AFB121109B1C1F107010818297847
:10502000082938BFC01F697808FB0010814501DAE4
:105030003046B2E72879697A8842D2D1761EB641E5
:10504000F60FCFE70C140020141400201D4F0008A9
:10505000254F0008181400201C140020B008002060
:10506000AC080020DFF8F000DFF8F0100160DFF896
:10507000E800DFF8EC100160704738B50400042543
:105080005FF4302000F074F80500EDB2042D20D15B
:10509000DFF8D000006850F00200DFF8C8100860A8
:1050A000DFF8C4000460DFF8BC00006850F0400086
:1050B000DFF8B01008605FF4302000F059F8050008
:1050C000DFF8A000006841F6FD710840DFF8941099
:1050D00008602800C0B232BD70B504000D0004267F
:1050E0004FF4005000F044F80600F6B2042E16D13A
:1050F000DFF87000006850F00100DFF86810086009
:1051000025804FF4005000F033F80600DFF854001B
:10511000006841F6FE710840DFF848100860300072
:10512000C0B270BD11490860704704200F4909687A
:10513000C90701D501200CE00C480068400701D5E3
:10514000022006E009480068C00601D5032000E0FF
:105150000420C0B2704700000420024023016745CC
:10516000AB89EFCD10200240142002400C200240F9
:1051700038B504000425FFF7D8FF050003E0FFF76A
:10518000D4FF0500641EEDB2012D01D1002CF6D133
:10519000002C00D105252800C0B232BD80B51220F8
:1051A000ADF8000002208DF8020010208DF80300F9
:1051B00000A93F48FFF7A8FC02213D48FFF70AFD80
:1051C00010213B48FFF706FD3A48012180F82410E2
:1051D00039480021018001BD80B5364991F824107D
:1051E00000290BD1C0B2012808D110213048FFF7A7
:1051F000F1FC3048012180F824100FE02D4991F88E
:10520000241001290AD1C0B2002807D11021284852
:10521000FFF7E3FC2748002180F8241001BD80B58A
:105220002648408A012831D32248C088012806D365
:105230000120FFF7D1FF20480021018029E01E480E
:105240000088012804D31C480088401E1A490880A1
:105250001B480088012804D319480088401E1849BB
:10526000088015480088002808D10120FFF7B4FF06
:105270001148B421018012483C2101801048008867
:10528000002806D10020FFF7A7FF02E00020FFF76B
:10529000A3FF01BD80B5C0B2002807D10221044898
:1052A000FFF79BFC03484FF47A71C18401BD0000F5
:1052B000000801403C10002062140020900F0020E4
:1052C0006414002010B400220A2308E00478303C63
:1052D0000A2C07D210F8014B03FB0242303A491E58
:1052E000F4D501E04FF0FF32104610BC70472DE9B5
:1052F000F041054615F8018BB8F1000F6FD0284634
:10530000022601E0401C761C414601F05FFB0028AC
:10531000F8D106EB860000F0FFFC06005FD0002706
:10532000344601E004F20504287828280CD1042131
:10533000681CFFF7C7FFA0F26C77002F4CD4687988
:10534000292849D105F20605277102212846FFF7D1
:10535000B9FF401EE070AD1C02212846FFF7B2FFE6
:10536000401EA07015F8020F30380A2805D202211D
:105370002846FFF7A7FFAD1C00E000206070E07832
:105380000C283CBFA07864283CBF6078642823D2F6
:1053900028782B2804D02D281CBF0020207010D185
:1053A0006878A0F13001C9B2072915D2302808BFAA
:1053B0000721217028782B2802D12078C01D207069
:1053C000AD1C287820B9FF2060716772304607E075
:1053D00015F8010B4045A5D0304600F005FF002030
:1053E000BDE8F0812DE9F04F85B081460D461646A7
:1053F0004F4600E07F1C3878A0F109010529F9D358
:105400002028F7D02D2801D02B2802D117F8018BA6
:1054100001E04FF02B08002E03D4012E01D0252EE1
:1054200004DB0DB1C5F80090002062E0012E0BDB1B
:10543000102E16D13878302813D1787840F020001B
:1054400078280ED1BF1C0CE03878302818BF0A2607
:1054500007D1787840F02000782808BF1026F1D0D6
:10546000082603973878302803D117F8010F302821
:10547000FBD000240297DFF880A00AF128008DF805
:10548000040008E000949DF80410401A5FFA80FBC5
:1054900006FB04B47F1C3978A1F141001A2838BFFB
:1054A000203132460AF1280001F048F80028E9D1FD
:1054B0000398B842B5D00298381A16F80A10401A64
:1054C00010D4012807DAB4EB0B0004D3B0FBF6F0DC
:1054D0000099884206D001F08FFA222101604FF036
:1054E000FF3403E0B8F12D0F08BF644205B12F600F
:1054F000204605B0BDE8F08F94650008012805DB63
:10550000421E531002EB937292100BE010F1030F46
:1055100007DAC0F10402531002EB93729210521C8E
:1055200000E0002210F0030300D108B9334800E086
:10553000334830F91100801870472DE9F04B82B0E4
:10554000044630484018009004B92F4C2262DDF820
:10555000008040F26D190726DFF8B0B002E0009835
:1055600000F56168B8FBFBF5681C90FBF6F106FBE3
:105570001100A06195FBF9F700E07F1E002138467D
:10558000FFF7BCFF09FB07008542F6DB281A6761BD
:10559000E06117F0030100D10FB9184900E0184984
:1055A0000C2201F21803521E33F9027DB842FADBD5
:1055B000226131F91210401A401CE0600BFB15808B
:1055C0004FF46161B0FBF1F1A1604FF4616202FB45
:1055D00011003C21B0FBF1F16160C1EB0112A0EBC5
:1055E00082002060206A002805D52046FFF7A4FC31
:1055F00020620128B3DA2046BDE8F68B0468000873
:10560000EC670008807EAA83D81300208051010037
:10561000005EBCE2613FDD83C29C7E20A3FD1F4192
:105620009DC3217FFCA2401E5F01E3BD3E6082DC82
:1056300023079FC1421CFEA0E1BF5D0380DE3C62E8
:10564000BEE0025CDF81633D7C22C09E1D43A1FF62
:105650004618FAA427799BC584DA3866E5BB590752
:10566000DB856739BAE406581947A5FB7826C49A42
:10567000653BD987045AB8E6A7F91B45C6987A2432
:10568000F8A6441A99C7257B3A6486D85B05E7B922
:105690008CD2306EEDB3510F4E10F2AC2F7193CD12
:1056A000114FADF3702ECC92D38D6F31B2EC0E5002
:1056B000AFF1134DCE90722C6D33D18F0C52B0EEF2
:1056C000326C8ED0530DEFB1F0AE4C1291CF2D73E2
:1056D000CA947628ABF517490856B4EA6937D58BD2
:1056E0005709EBB536688AD495CB2977F4AA4816C2
:1056F000E9B7550B88D6346A2B7597C94A14F6A8B2
:10570000742AC896154BA9F7B6E80A54D7896B35A1
:1057100010B5FF2313EAD0541DBF13EAD1529C42A7
:105720009A4239E0A41ADA0780EA0103134042EAF8
:10573000012142EA0020421A3CBF641E01EB4202F2
:10574000090AB2FBF1FE01FB1E221202B2FBF1F0CC
:1057500001FB10226EF30F201202B2FBF1FE4EEAA3
:1057600000207F3406DDFE2C24DA53EA500050EB93
:10577000C45010BDD4F1020401FB1E2240F0807120
:10578000192C1DDC21FA04F0C4F12004A1401143BE
:1057900071F10042584110BD9C421ABF03EAD15238
:1057A0009A420FE080EA010E0EF00043400004D060
:1057B000490016D143F0FF4010BD490008BFD34354
:1057C000180010BD9C4205D1D21AF7D001F000415B
:1057D000484010BD4A0212BF0846484000F0004051
:1057E00010BD4AB90902B1FA81F2914044B1A4183E
:1057F000C00140F000409EE7C90141F00041524223
:105800000002B0FA80F4A040141B94E700B585B004
:105810000020009000208DF8040000208DF8050085
:105820005FF4602002900020039001208DF81000AA
:1058300000A92E48FEF742FE0523012200212B4835
:10584000FEF79AFE01212948FEF75EFE2748FEF783
:1058500068FE2648FEF76AFE0028FAD12348FEF7C4
:105860006FFE2248FEF771FE0028FAD105B000BD98
:1058700010B500241E484078002807D101211B489C
:10588000FEF76DFE1A480121417017E0022117480A
:10589000FEF7DCFEC0B2012810D11448FEF7CEFEA0
:1058A0001349496880B2401811494860104800788F
:1058B000401C0F4908700E48002141700C480078C8
:1058C0000A2810D10A4840680A21B0FBF1F00849C3
:1058D00008810748002141600548002141700448C3
:1058E0000021017001242000C0B210BD002401403D
:1058F0008C0A002070B44FF0004591EA030C44BFBD
:105900006B40FFF74AB8841A71EB030603D2001B01
:10591000B141121973414FF4001C1CEB410F34BF0D
:105920007CEB430443E00C0DA4EB1356352E50DC06
:1059300045EAC323DB0A45EAC121C912B6F12005B5
:105940000DDD63FA05F6EB4086EA0305124218BF47
:1059500045F00105C01851F100010CD213E062FAC4
:1059600006F5F2405540F3415A40B340F3405A40E7
:105970008018594107D349085FEA30005FEA3505CE
:1059800028BF45F0010501F58011420875F100427C
:1059900050F1000041EB045170BC4FF4001C1CEBB3
:1059A000410F38BF70470020090D090570471CEBF7
:1059B000410F10D252EA43060BD0BCEB410F05D881
:1059C0000C0DAB43661E342EB5DD02E0AB438018F0
:1059D000594170BC704770BC704700000021324ACA
:1059E00011008279002A35D02F4A126803689A4341
:1059F0002D4B1A602D4A126803689A432B4B1A608C
:105A0000027951180A6803681A430A60284909682C
:105A100002689143264A1160264909680268914349
:105A2000244A1160417910290CD121490968026882
:105A300011431F4A11601F490968006808431D4946
:105A400008600EE01849427951180A68006810434E
:105A5000086006E0027951180A68006832EA00001E
:105A60000860704700210160002101710C21417123
:105A700000218171704710490860704700210022A1
:105A8000094B1B6803401A000B4B1B68034203D0F1
:105A9000002A01D0012100E000210800C0B27047B7
:105AA00005490860704700000004014004040140FB
:105AB000080401400C04014014040140FF2212EAD2
:105AC000D05C1DBF12EAD153944593422BE09C4415
:105AD000D30780EA01021A4043EA002043EA012189
